:100000002DC051C050C02FC674C64DC04CC04BC08F
:100010004AC049C048C06EC546C045C044C043C080
:10002000B3C500003A00370000003B003800000074
:100030000102030400000000000000000039003647
:100040000002020201010101010101010201020499
:1000500080402010080402010800C40711241FBEBC
:10006000CFE5D2E0DEBFCDBF21E0A4ECB0E001C01F
:100070001D92AB34B207E1F710E0A0E6B0E0E6E88D
:10008000F0E102C005900D92A43CB107D9F710E051
:10009000CEE2D0E003C02197FE01EDD7CD32D107EB
:1000A000D1F74CD6EEC71BC6EDE4F0E08491E1E455
:1000B000F0E0E491EE2371F0F0E0EE0FFF1FE55C5D
:1000C000FF4FA591B491EC91E82381E090E021F4F9
:1000D00080E0089580E090E00895E82FEF70EB3025
:1000E00050F48295869586958370823051F18330E5
:1000F000C1F1813091F08E2F6CE08FD7E92FF0E0C5
:10010000EE0FFF1FEE0FFF1FE75EFE4F4081518194
:1001100062817381CB01BA010895F0E0EE0FFF1FF9
:10012000EE0FFF1FE75EFE4F80819181A281B381B8
:10013000482B592B6A2B7B2B40835183628373831B
:10014000E9CFF0E0EE0FFF1FEE0FFF1FE75EFE4F5F
:1001500080819181A281B381482359236A237B2323
:10016000EBCFF0E0EE0FFF1FEE0FFF1FE75EFE4F3D
:10017000E3CFCF92DF92EF92FF920F931F93CF9333
:10018000DF936C01EB017B01E40EF51E10E000E053
:10019000CE15DF0561F06991D601ED91FC910190DA
:1001A000F081E02DC6010995080F191FF1CFC80194
:1001B000DF91CF911F910F91FF90EF90DF90CF9043
:1001C000089590E0FC01E25DFF4F3491FC01E35B98
:1001D000FF4F2491FC01EF5BFF4FE491EE23B9F058
:1001E000332329F03130A1F480B78F7780BFF0E05E
:1001F000EE0FFF1FE85DFF4FA591B4918FB761111E
:1002000017C0F894EC9120952E232C938FBF08955E
:10021000323019F480B78F7DE9CF333021F48FB5B8
:100220008F778FBDE4CF343011F78FB58F7DF9CF45
:10023000F894EC912E2BE9CFCF93DF9390E0FC0163
:10024000E35BFF4F24918F5B9F4FFC0184918823D8
:10025000D1F090E0880F991FFC01EE5DFF4FA59152
:10026000B491FC01E85DFF4FC591D49161110EC0BE
:100270009FB7F8948C91E22FE0958E238C93288180
:10028000E223E8839FBFDF91CF9108958FB7F89461
:10029000EC91E22BEC938FBFF6CF9091FE009295FC
:1002A000990F990F907C8F77982B97B9369A36993A
:1002B000FECF84B195B108953FB7F8948091FA00CC
:1002C0009091FB00A091FC00B091FD0022B708B610
:1002D00000FE05C02F3F19F00196A11DB11D3FBFC3
:1002E000BA2FA92F982F8827BC01CD01620F711D4D
:1002F000811D911D43E0660F771F881F991F4A9546
:10030000D1F70895CF92DF92EF92FF92CF93DF93D0
:100310006B017C01D1DFEB01CFDF6C1B7D0B683EF5
:100320007340A0F0C114D104E104F10439F4DF9169
:10033000CF91FF90EF90DF90CF90089581E0C81AA1
:10034000D108E108F108C851DC4FE6CFC114D1044F
:10035000E104F10409F7EBCF8091D30081111EC0B5
:100360001092C7001092C6008FEF8093C8001092C1
:10037000C9001092CA001092CB001092CC001092CB
:10038000CD001092CE001092CF001092D0001092AB
:10039000D1001092D20081E08093D30084EC90E0F1
:1003A0000895EF92FF920F931F93CF93DF93DC0199
:1003B0001F96ED90FC905097E114F10479F481E0E0
:1003C00090E013969C938E93129790E080E0DF91DB
:1003D000CF911F910F91FF90EF9008951D96ED9191
:1003E000FC911E971C968C911C97982F90950FB797
:1003F00051962C915197122F117020FD6095F89411
:100400002081112319F1282B2083E7012197F1F78F
:1004100028E0462F50E0308160FF1AC0382B30832F
:10042000E7012197F1F7BA0175956795215089F792
:10043000112381F08081892380830FBF1F968D91C6
:100440009C910197F1F781E090E0C1CF2923DCCFA7
:100450003923E5CF9081892BEFCF089590E080E09C
:100460000895FB0101900020E9F73197AF01461B89
:10047000570BDC01ED91FC910280F381E02D099492
:100480008F929F92AF92BF92CF92DF92EF92FF92A4
:100490000F931F93CF93DF93CDB7DEB7A1970FB61E
:1004A000F894DEBF0FBECDBF6C01142FE52FCB013A
:1004B000022F19A2223008F40AE07E0121E2E20EA6
:1004C000F11C802E912CB12CA12C612F7E2FA50127
:1004D0009401AFD5802F622F97D5181B1A300CF5D9
:1004E000105DF70112937F01122FE32FCA01232B16
:1004F000242B252B51F7B701C601B3DFA1960FB608
:10050000F894DEBF0FBECDBFDF91CF911F910F9149
:10051000FF90EF90DF90CF90BF90AF909F908F9023
:100520000895195CDECFEF92FF920F931F93CF9344
:10053000DF93EC0196DF8C01E881F9810190F08175
:10054000E02D6DE0CE0109957C01E881F9810190F3
:10055000F081E02D6AE0CE0109950E0D1F1D800F80
:10056000911FDF91CF911F910F91FF90EF90089510
:100570004F925F926F927F928F929F92AF92BF92B3
:10058000CF92DF92EF92FF920F931F93CF938091C0
:10059000DF0091E0980F9093DF00837009F0D8C1DD
:1005A000C0901901D0901A01E0901B01F0901C013D
:1005B000D701C60181729927AA27BB278197A10578
:1005C000B10509F08EC080911D0190911E01A0918E
:1005D0001F01B09120014091410150914201609171
:1005E0004301709144014B01AA24BB24662777275D
:1005F00081149104A104B10489F04090310150901C
:100600003201609033017090340123016624772415
:1006100011E0481459046A047B0408F010E0411505
:1006200051056105710581F0409031015090320112
:10063000609033017090340166247724C1E0441641
:1006400055066606770608F0C0E00097A105B105DB
:1006500029F0111103C0CC2309F433C160E770E025
:100660008FEF90E060DFE894C7F8D0F8112309F429
:100670001FC1CC2309F419C122E8C22A6894D0F81A
:10068000EFE8CE228091290190912A01A0912B01BF
:10069000B0912C018093210190932201A09323011A
:1006A000B09324018091390190913A01A0913B01CE
:1006B000B0913C01AC01BD0144275527AA27BB27B7
:1006C0000196A11DB11DAA27BB27842B952BA62B14
:1006D000B72B8093390190933A01A0933B01B093DB
:1006E0003C01C3FE6CC0C5FC6AC0809121019091A1
:1006F0002201A0912301B09124010097A105B10529
:1007000009F00EC180913D0190913E01A0913F0101
:10071000B09140018D0122273327AA27BB274091A2
:1007200031015091320160913301709134012A01FD
:100730003B0166247724011511052105310509F0D7
:10074000D3C00097A105B10531F0481659066A06D5
:100750007B0608F4D2C061E870E08FEF90E0E3DE42
:10076000FDEBCF2220E3C22A809125019091260142
:10077000A0912701B091280180931D0190931E0143
:10078000A0931F01B09320018091390190913A010B
:10079000A0913B01B0913C01AC01BD0166277727D8
:1007A000882799271196842B952BA62BB72B8093FE
:1007B000390190933A01A0933B01B0933C01C09260
:1007C0001901D0921A01E0921B01F0921C018FEFE7
:1007D000C5FCB9C061E083E0F4DC809149019091EF
:1007E0004A01009709F476C161E970E03ADE59E107
:1007F000A52E51E0B52EC0E064E970E0809149017A
:1008000090914A012EDEF5014190519061907190D6
:100810005F0108E110E08091490190914A01009741
:10082000D9F073016201002E04C0F694E794D794C6
:10083000C7940A94D2F7FFE0FC1518F067E970E05E
:1008400010DEB701A60155276627772720E18091A2
:10085000490190914A0114DE08501109083F2FEF19
:100860001207C9F68091490190914A01CB3019F0E5
:1008700069E970E0F6DDCF5FCC3009F0BDCF6CE9FF
:1008800070E08091490190914A01CF911F910F91A1
:10089000FF90EF90DF90CF90BF90AF909F908F90A0
:1008A0007F906F905F904F903ECE82E8C82AE8CE4E
:1008B000C11103C06894C1F8E3CE6894C1F8D0F8C0
:1008C000DFCE8E319105A105B10510F46894C6F80C
:1008D0000197A109B10980931D0190931E01A09376
:1008E0001F01B0932001FDCEAB016627772740178B
:1008F00051076207730708F024CF80912901909176
:100900002A01A0912B01B0912C0180932101909399
:100910002201A0932301B0932401E894C6F84FCF9D
:100920008E319105A105B10510F46894C6F80197C0
:10093000A109B1098093210190932201A093230181
:10094000B09324013CCFDF9ADF988150E1F745CF87
:100950008091E00066E061D3933009F461C078F5DE
:100960009130E9F1923009F445C082E287B93F9AAB
:100970003E9862E070E080E090E0C4DC86B1877D64
:1009800086B9379A369A62E070E080E090E0BADC8F
:100990003699FECFC4B085B1D82EF12CE12C81E080
:1009A00090E045E050E06091E1007091E200892B19
:1009B00009F06DC000E010E02FEF3FEF6FC0943002
:1009C00009F443C0953089F682E08093FE0082E806
:1009D00064DC6C01F12CE12C90E080E055C082E0F9
:1009E0008093FE0083E859DC6C01F12CE12C90E04F
:1009F00080E0D7CF9093FE0080E84FDC6C01F12CB3
:100A0000E12C8091E3009091E400009721F02AE02E
:100A1000B701A60135DD81E090E046E050E0C3CFAC
:100A200082E08093FE0081E838DC6C01F12CE12C3F
:100A30008091E3009091E400009721F02AE0B70153
:100A4000A6011EDD90E080E0E8CF81E287B962E098
:100A500070E080E090E056DC369A3699FECF84B1A3
:100A600025B130E0322F2227032E000C440B550B0A
:100A7000282B60E070E381E190E0DBD269017A012C
:100A8000EE24FF2481E090E047E050E08CCF760137
:100A9000DD24CC240FEF1FEF20E030E0440F551F82
:100AA000440F551FFB01E40FF51F80819181A28146
:100AB000B38180239123A223B3238C299D29AE29BE
:100AC000BF2980839183A283B3838091E0008F5FED
:100AD0008093E000CF911F910F91FF90EF90DF90F6
:100AE000CF90BF90AF909F908F907F906F905F90CE
:100AF0004F9008951F920F920FB60F9211242F93CB
:100B00003F938F939F93AF93BF93809111019091E7
:100B10001201A0911301B09114013091F90026E067
:100B2000230F2D3768F129E8230F0396A11DB11D6E
:100B30002093F9008093110190931201A093130167
:100B4000B09314018091FA009091FB00A091FC00F9
:100B5000B091FD000196A11DB11D8093FA00909304
:100B6000FB00A093FC00B093FD00BF91AF919F915B
:100B70008F913F912F910F900FBE0F901F9018955E
:100B80000296A11DB11DD4CF1F920F920FB60F92E6
:100B900011241F932F933F934F935F936F937F93F2
:100BA0008F939F93AF93BF93CF93DF93EF93FF9375
:100BB000D3DBEC011FB180E48EB989859A85AB85C2
:100BC000BC858B2F9927AA27BB278FB96DDA892B74
:100BD00041F52C8127FD25C0211137C01D8789854E
:100BE0009A85AB85BC85BA2FA92F982F882789872E
:100BF0009A87AB87BC87243089F44D815E816F81F1
:100C00007885E881F9818D85099569877A878B8751
:100C10009C878D8580648E878FEF8C838C818F5F1E
:100C20008C83FF91EF91DF91CF91BF91AF919F9115
:100C30008F917F916F915F914F913F912F911F9174
:100C40000F900FBE0F901F9018958D819E81AF81E0
:100C5000B885BA2FA92F982F8827812B8D839E8343
:100C6000AF83B887BCCF1F920F920FB60F9211249B
:100C70002F933F934F935F936F937F938F939F93A4
:100C8000AF93BF93CF93DF93EF93FF9365DBEC01BB
:100C90000BDA892BE1F461E085E0CEDA1C826E9AF2
:100CA00080E48EB98E858FB9FF91EF91DF91CF915E
:100CB000BF91AF919F918F917F916F915F914F9174
:100CC0003F912F910F900FBE0F901F9018956E9827
:100CD0001EB88FEF8C8360E085E0AEDAE5CF1F921F
:100CE0000F920FB60F9211240F900FBE0F901F900E
:100CF00018951F920F920FB60F9211248F939F9306
:100D0000AF93BF938091DB009091DC00A091DD0058
:100D1000B091DE000196A11DB11D8093DB00909380
:100D2000DC00A093DD00B093DE00BF91AF919F91F6
:100D30008F910F900FBE0F901F90189583E080BF8A
:100D400083BF789499B7916099BF8FBD8EBD86B1EE
:100D50008877866886B9379A14B714BE88E19FE011
:100D60000FB6F894A89581BD0FBE91BDA89561E01E
:100D700083E062DA61E081E05FDAF894E9E1F1E0D2
:100D800089E491E011921192119211928E179F07AE
:100D9000C9F7CFEFD0E081E390E090930F0180930B
:100DA0000E016FE970E0CE01BEDB66EA70E0CE01B5
:100DB00058DB412F50E070E060E022E0CE0160DBC4
:100DC00062EB70E0CE01AFDBD0934A01C0934901E2
:100DD00086E092E0A4E6B0E7809345019093460157
:100DE000A0934701B093480184E893E0A0E0B0E00D
:100DF00080931D0190931E01A0931F01B0932001C9
:100E00008093210190932201A0932301B0932401A8
:100E10008093290190932A01A0932B01B0932C0178
:100E20008093250190932601A0932701B093280178
:100E30001092390110923A0110923B0110923C013C
:100E400089E290E0A0E0B0E08093190190931A014C
:100E5000A0931B01B0931C0110923D0110923E0122
:100E600010923F01109240011092410110924201F4
:100E700010924301109244016FDA8C018DE690E0EC
:100E8000F8019183808360E085E0D6D960E084E05A
:100E9000D3D960E086E0D0D960E080E0CDD988E1A8
:100EA0008DB981E080BD80E28BBFF801D383C2831E
:100EB000789465EB70E0CE0136DB2FB7F894809123
:100EC000110190911201A0911301B09114012FBF53
:100ED0008093150190931601A0931701B093180108
:100EE000C8E1DCE08091190185FD1AC096B116B801
:100EF0000FB6F894A895C1BD0FBED1BDA89581B518
:100F0000806481BD85B7877E806185BF85B780623B
:100F100085BF889585B78F7D85BF96B929DBE2CFE0
:100F2000A8952FB7F8948091110190911201A0918A
:100F30001301B09114012FBF40911501509116017A
:100F4000609117017091180184179507A607B707DC
:100F5000A8F00EDB8091150190911601A091170168
:100F6000B091180186509F4FAF4FBF4F809315012E
:100F700090931601A0931701B093180169E170E0F6
:100F800080E090E0BFD9AECFCF93DF93CFEFD0E03A
:100F90001B821A8288EE93E0A0E0B0E08C839D83F0
:100FA000AE83BF8384E690E099838883188A1F8686
:100FB000E0E1F1E060816E7F60836095617081E0C7
:100FC00000D961E081E038D9EEE4F0E0E491EC870B
:100FD000E2E4F0E0E491F0E0EE0FFF1FE85DFF4F88
:100FE000859194919E878D87A9E1B1E0D1961C925D
:100FF0001E92D097E0EEF0E01082B283A1831482BB
:101000001382DF91CF910895002480FD060E660FB4
:1010100011F08695D1F7802D0895991B79E004C0D1
:10102000991F961708F0961B881F7A95C9F7809527
:101030000895A1E21A2EAA1BBB1BFD010DC0AA1F19
:10104000BB1FEE1FFF1FA217B307E407F50720F031
:10105000A21BB30BE40BF50B661F771F881F991FAC
:101060001A9469F760957095809590959B01AC01F5
:10107000BD01CF010895EE0FFF1F0590F491E02D03
:061080000994F894FFCF73
:1010860000000000D101B9002E022E022E022D0210
:10109600506F776572696E67206F66662070692E7D
:1010A60000506F776572696E67206F6E2070692ECB
:1010B600005B200030780030002C2000205D0068A6
:1010C600656C6C6F21004D43555352207761733A1E
:1010D6002000622E00736574757020636F6D706CEE
:0410E60065746500C8
:00000001FF
