:100000002EC052C051C0DDC45BC14EC04DC04CC0FB
:100010004BC04AC049C0B8C547C046C045C044C02F
:100020005AC50000010203040000000000000001A6
:1000300002048040201008040201080202020101AB
:100040000101010101010200003900360000003BFE
:1000500000380000003A00370000A704B80411245B
:100060001FBECFE5D2E0DEBFCDBF10E0A0E6B0E01E
:10007000E0E1F2E102C005900D92A439B107D9F791
:1000800021E0A4E9B0E001C01D92A131B207E1F77F
:1000900010E0CEE2D0E003C02197FE0179D8CD3246
:1000A000D107D1F7C8D7A8C842C380E090E008952F
:1000B00080E090E0089580E090E0089508951F9317
:1000C000CF93DF93DC011F962D913C915097211522
:1000D000310539F481E090E013969C938E9312974A
:1000E0003CC01D96ED91FC911E971C969C911C970F
:1000F000892F80951FB751964C915197742F71702D
:1001000040FD6095F8944081772311F0492B01C0A0
:1001100048234083E9012197F1F748E0508160FFCF
:1001200002C0592B01C058235083E9012197F1F7F0
:100130006695415099F7772321F090818923808338
:1001400003C08081982B90831FBF1F968D919C9137
:1001500050970197F1F721E030E0C901DF91CF918D
:100160001F91089508951F93CF93DF93EC01162FED
:10017000698960956170812F32D661E0812FF1D558
:10018000612F70E0FB01E15DFF4FE491EC87FB0123
:10019000E55CFF4FE491F0E0EE0FFF1FE35BFF4FE4
:1001A000859194919E878D87DF91CF911F910895BE
:1001B000FC011382128288EE93E0A0E0B0E0848319
:1001C0009583A683B78384E690E091838083108A29
:1001D0001786818940FB80F9818BCF01C4CFCF93F3
:1001E000DF93EC019A01AB0160E874E88EE190E0E6
:1001F0005FD72430310518F02350310902C021E0C7
:1002000030E0388B2F87DF91CF9108950F931F93A4
:10021000982F8A019B018F70893050F492959695A2
:1002200096959370923031F19330B9F1913079F025
:100230006AE010D7E92FF0E0EE0FFF1FEE0FFF1F6F
:10024000E154FF4F008111812281338134C06AE083
:1002500001D7E92FF0E0EE0FFF1FEE0FFF1FE15473
:10026000FF4F80819181A281B381082B192B2A2B0A
:100270003B2B1DC06AE0EED6E92FF0E0EE0FFF1F2A
:10028000EE0FFF1FE154FF4F80819181A281B38166
:10029000082319232A233B230AC06AE0DBD6E92F6F
:1002A000F0E0EE0FFF1FEE0FFF1FE154FF4F008342
:1002B000118322833383C901B8011F910F910895DF
:1002C0001F920F920FB60F9211248F939F93AF93AB
:1002D000BF938091FB009091FC00A091FD00B09134
:1002E000FE000196A11DB11D8093FB009093FC00C0
:1002F000A093FD00B093FE00BF91AF919F918F91AD
:100300000F900FBE0F901F9018954F925F926F92B3
:100310007F928F929F92AF92BF92EF92FF920F9334
:100320001F93CF938091BF009091C000A091C10016
:10033000B091C200AC01BD014172552766277727F5
:10034000413251056105710509F050C04091C3006B
:100350005091C4006091C5007091C60041155105CF
:100360006105710589F58F7C82604091CF005091C5
:10037000D0006091D1007091D2004093C70050939B
:10038000C8006093C9007093CA004091DF0050918B
:10039000E0006091E1007091E2008A019B0100277A
:1003A00011274F5F5F4F6F4F7F4F66277727402B97
:1003B000512B622B732B4093DF005093E00060932E
:1003C000E1007093E20012C04E31510561057105E4
:1003D00008F4806441505109610971094093C300D8
:1003E0005093C4006093C5007093C60083FF50C053
:1003F00085FD4EC04091C7005091C8006091C90072
:100400007091CA00411551056105710579F58D7B23
:1004100080634091CB005091CC006091CD007091F1
:10042000CE004093C3005093C4006093C500709306
:10043000C6004091DF005091E0006091E1007091B2
:10044000E2008A019B0100271127662777272F5F8B
:100450003F4F402B512B622B732B4093DF00509367
:10046000E0006093E1007093E20012C04E3151054C
:100470006105710508F480644150510961097109F1
:100480004093C7005093C8006093C9007093CA009E
:100490008093BF009093C000A093C100B093C200AE
:1004A00025E0B695A795979587952A95D1F721E0F0
:1004B0008227682F617083E092D48091E700909149
:1004C000E800009709F45BC060E770E023D58FEB8C
:1004D000E82E80E0F82EC0E063E770E08091E7004E
:1004E0009091E80017D5F70141905190619071907B
:1004F0007F0108E110E053014201002E04C0B694D0
:10050000A794979487940A94D2F7282D8091E700B6
:100510009091E800009769F0203118F466E770E0E8
:10052000F9D440E150E0682D8091E7009091E80017
:100530007CD508501109083FFFEF1F07E1F6C930CD
:1005400039F068E770E08091E7009091E800E2D42C
:10055000CF5FCA3009F66BE770E08091E7009091B9
:10056000E800CF911F910F91FF90EF90BF90AF9057
:100570009F908F907F906F905F904F90E5C4CF9148
:100580001F910F91FF90EF90BF90AF909F908F9031
:100590007F906F905F904F90089514BE9FE088E128
:1005A0000FB6F894A89581BD0FBE91BDA89561E0E6
:1005B00083E0D7D361E081E0D4D3F894EFEBF0E0AF
:1005C000119211921192119280E0E73EF807C1F763
:1005D00040E056E960E070E089EE90E000DE6EE712
:1005E00070E089EE90E0B0D489EE90E09093E8005E
:1005F0008093E70084E092E0A4E6B0E78093E30014
:100600009093E400A093E500B093E6008CE291E0C3
:10061000A0E0B0E08093C3009093C400A093C50015
:10062000B093C6008093C7009093C800A093C90000
:10063000B093CA008093CF009093D000A093D100D4
:10064000B093D2008093CB009093CC00A093CD00C8
:10065000B093CE001092DF001092E0001092E10003
:100660001092E20089E290E0A0E0B0E08093BF0049
:100670009093C000A093C100B093C2008091FF008E
:1006800081111DC010929700109296001092980050
:100690001092990010929A0010929B0010929C0068
:1006A00010929D0010929E0010929F001092A00048
:1006B0001092A1001092A20081E08093FF0086E0DA
:1006C00091E0909395008093940084E990E053D159
:1006D00089EE90E09093970080939600789465E877
:1006E00070E032D49BD26093A4007093A5008093F5
:1006F000A6009093A700089596B116B82CE088E163
:100700000FB6F894A89581BD0FBE21BDA89581B5FF
:10071000806481BD85B7877E806185BF85B7806233
:1007200085BF889585B78F7D85BF96B908951F923F
:100730000F920FB60F9211240F900FBE0F901F90C3
:100740001895CF92DF92EF92FF92CF93DF93EC0157
:10075000888166E07FD4933009F43FC028F491305B
:1007600039F1923081F106C0943009F441C09530DE
:1007700009F46CC082E287B93F9A3E9862E070E06B
:1007800080E090E07ED286B1877D86B9379A369A2E
:1007900062E070E080E090E074D23699FECF24B140
:1007A00085B130E0382B40E050E061E070E009C0F6
:1007B00082E0A1D283E8A2D29C0140E050E060E058
:1007C00070E085E04DC082E096D280E897D29C012F
:1007D00040E050E061E070E009C082E08CD281E846
:1007E0008DD29C0140E050E060E070E086E038C0CF
:1007F00081E287B962E070E080E090E042D2369A10
:100800003699FECF84B125B130E0322F2227A901DD
:10081000330F660B770B9A01AB01282B60E070E376
:1008200081E190E023D4CA01B9018827992726EDF8
:1008300033E140E050E05AD4B901CA0127E734E17E
:1008400040E050E013D461E070E009C082E053D290
:1008500082E854D29C0140E050E060E070E087E024
:10086000A981BA81672B49F0A90133272227CC241B
:10087000CA94DC2CE12CF12C05C0C12CD12CEE2427
:10088000EA94FE2C6AE0E6D3E92FF0E0EE0FFF1FBA
:10089000EE0FFF1FEA0FFB1F80819181A281B381C0
:1008A0008C219D21AE21BF21822B932BA42BB52B14
:1008B00080839183A283B38388818F5F8883DF9154
:1008C000CF91FF90EF90DF90CF9008958091A3009B
:1008D00091E0980F9093A300837009F416CD88EAF5
:1008E00090E02FCF0F931F938091BF0085FD04C030
:1008F00003DF1F910F91EACFA89590D10091A4003A
:100900001091A5002091A6003091A70060177107F3
:1009100082079307A8F0DADF8091A4009091A500E8
:10092000A091A600B091A70086509F4FAF4FBF4F38
:100930008093A4009093A500A093A600B093A70075
:1009400069E170E080E090E01F910F919AC140E072
:1009500061E089EE90E02CDCAFEBB0E099961C9260
:100960001E929897E8EAF0E01082B283A18308957E
:1009700089EE90E0F7CB61E085E0F3D160E084E0C0
:10098000F0D160E086E0EDD160E080E0EAD188E17E
:100990008DB981E080BD80E28BBF0895CF93DF9356
:1009A000EC0180E056D2892B39F41C826E9A80E4E7
:1009B0008EB98E858FB902C06E981EB8DF91CF9127
:1009C00008951F920F920FB60F9211242F933F9309
:1009D0004F935F936F937F938F939F93AF93BF9347
:1009E000EF93FF938091FF0081111DC0109297003B
:1009F00010929600109298001092990010929A000E
:100A000010929B0010929C0010929D0010929E00EC
:100A100010929F001092A0001092A1001092A200CC
:100A200081E08093FF0084E990E0B8DFFF91EF91CF
:100A3000BF91AF919F918F917F916F915F914F91F6
:100A40003F912F910F900FBE0F901F901895CF934D
:100A5000DF93EC013FB180E48EB989859A85AB853F
:100A6000BC858B2F9927AA27BB278FB92C812111F1
:100A700002C03D870DC08D819E81AF81B885BA2FA0
:100A8000A92F982F8827832B8D839E83AF83B887C8
:100A900089859A85AB85BC85BA2FA92F982F882781
:100AA00089879A87AB87BC87243079F44D815E8132
:100AB0006F817885E881F9818D85099569877A87C5
:100AC0008B879C878D8580648E878C818F5F8C83DC
:100AD000DF91CF9108951F920F920FB60F921124BC
:100AE0002F933F934F935F936F937F938F939F9336
:100AF000AF93BF93EF93FF938091FF0081111DC0CF
:100B000010929700109296001092980010929900FF
:100B100010929A0010929B0010929C0010929D00DF
:100B200010929E0010929F001092A0001092A100BF
:100B30001092A20081E08093FF0084E990E087DFBB
:100B4000FF91EF91BF91AF919F918F917F916F91A5
:100B50005F914F913F912F910F900FBE0F901F907B
:100B600018958EB5887F8EBD8FB581608FBD8FB58E
:100B70008D7F8FBD8EB5877F8EBD8EB58F7E8EBDEE
:100B80008EB583608EBD08951F920F920FB60F929F
:100B900011242F933F938F939F93AF93BF93809193
:100BA000080190910901A0910A01B0910B013091C7
:100BB000070126E0230F2D3730F029E8230F039695
:100BC000A11DB11D03C00296A11DB11D20930701F7
:100BD0008093080190930901A0930A01B0930B013F
:100BE00080910C0190910D01A0910E01B0910F0127
:100BF0000196A11DB11D80930C0190930D01A0934E
:100C00000E01B0930F01BF91AF919F918F913F91D2
:100C10002F910F900FBE0F901F9018952FB7F8943B
:100C2000609108017091090180910A0190910B0176
:100C30002FBF08953FB7F89480910C0190910D015A
:100C4000A0910E01B0910F0122B708B600FE05C0B9
:100C50002F3F19F00196A11DB11D3FBFBA2FA92F3B
:100C6000982F8827820F911DA11DB11DBC01CD01B8
:100C700043E0660F771F881F991F4A95D1F70895A3
:100C80000895CF92DF92EF92FF92CF93DF936B01A3
:100C90007C01D0DFEB01C114D104E104F10479F04F
:100CA000EFDFC8DF6C1B7D0B683E7340A0F381E073
:100CB000C81AD108E108F108C851DC4FF2CFDF9122
:100CC000CF91FF90EF90DF90CF90089580B7826032
:100CD00080BF80B7816080BF83B7887F836083BF18
:100CE000789489B7816089BF3CDF86B18877866850
:100CF00086B9379A08958093100108958F73909163
:100D000010019295990F990F907C892B87B9369A8B
:100D10003699FECF84B125B190E0922B08958130B1
:100D200031F480B78F7780BF80B78F7B07C0823068
:100D300039F480B78F7D80BF80B78F7E80BF0895E4
:100D4000833031F48FB58F778FBD8FB58F7B07C020
:100D5000843031F48FB58F7D8FBD8FB58F7E8FBD81
:100D60000895CF93DF9387FD8FEF90E0FC01E15D65
:100D7000FF4F2491FC01E55CFF4F8491882361F1D2
:100D800090E0880F991FFC01ED5AFF4FC591D49157
:100D9000FC01E35BFF4FA591B491611109C09FB7BE
:100DA000F8948881209582238883EC912E230BC0B0
:100DB000623061F49FB7F8943881822F8095832345
:100DC0008883EC912E2B2C939FBF06C08FB7F8948D
:100DD000E8812E2B28838FBFDF91CF9108950F9349
:100DE0001F93CF93DF931F92CDB7DEB787FD8FEFB1
:100DF000282F30E0F901EE5DFF4F8491F901E15DAC
:100E0000FF4F1491F901E55CFF4F04910023D9F0E5
:100E1000882319F0698383DF6981E02FF0E0EE0F0A
:100E2000FF1FE35BFF4FA591B4918FB7611106C01F
:100E3000F8949C91E12FE095E92303C0F894EC919C
:100E4000E12BEC938FBF0F90DF91CF911F910F910A
:100E50000895CF93DF9387FD8FEF282F30E0F901BE
:100E6000EE5DFF4F8491F901E15DFF4FD491F901EF
:100E7000E55CFF4FC491CC2389F0811150DFEC2F4A
:100E8000F0E0EE0FFF1FE95BFF4FA591B491EC91ED
:100E9000ED2381E090E021F480E002C080E090E06A
:100EA000DF91CF910895CF92DF92EF92FF920F934F
:100EB0001F93CF93DF936C01EB017B01E40EF51ED2
:100EC00000E010E0CE15DF0561F06991D601ED91EB
:100ED000FC910190F081E02DC6010995080F191FC2
:100EE000F1CFC801DF91CF911F910F91FF90EF904B
:100EF000DF90CF900895FB0101900020E9F7319732
:100F0000AF01461B570BDC01ED91FC910280F38190
:100F1000E02D0994F0CFDC01ED91FC910190F0817E
:100F2000E02D09940F931F93CF93DF93EC016DE0B5
:100F3000F2DF8C016AE0CE01EEDF800F911FDF91BE
:100F4000CF911F910F9108950F931F93CF93DF932C
:100F5000EC01D1DF8C01CE01E5DF800F911FDF9125
:100F6000CF911F910F9108958F929F92AF92BF9250
:100F7000CF92DF92EF92FF920F931F93CF93DF9365
:100F8000CDB7DEB7A1970FB6F894DEBF0FBECDBFC9
:100F90006C01142FE52FCB01022F19A2223008F487
:100FA0000AE07E0121E2E20EF11C802E912CA12CA0
:100FB000B12C612F7E2FA501940158D0802F622F74
:100FC00040D0181B81E0E81AF1081A3014F4105DC3
:100FD00001C0195CF7011083122FE32FCA01232BE4
:100FE000242B252B31F7B701C60185DFA1960FB65B
:100FF000F894DEBF0FBECDBFDF91CF911F910F914F
:10100000FF90EF90DF90CF90BF90AF909F908F9028
:1010100008952115310541F4DC01ED91FC91019019
:10102000F081E02D642F09949FCF9A01462F50E064
:1010300060E070E0EECF81B781BF48DEAEDA52DC0F
:10104000FECF002480FD060E660F11F08695D1F7C5
:10105000802D0895991B79E004C0991F961708F018
:10106000961B881F7A95C9F780950895A1E21A2EDC
:10107000AA1BBB1BFD010DC0AA1FBB1FEE1FFF1F3C
:10108000A217B307E407F50720F0A21BB30BE40B8C
:10109000F50B661F771F881F991F1A9469F76095D3
:1010A0007095809590959B01AC01BD01CF0108958D
:1010B000052E97FB16F400940FD057FD05D0D6DF10
:1010C00007FC02D046F408C0509540953095219514
:1010D0003F4F4F4F5F4F0895909580957095619564
:1010E0007F4F8F4F9F4F089568940013E894A0E0BE
:1010F000B0E0ECE7F8E01DC0EFEFE7F959016A0155
:101100005E23550FEE08FE2C87019B01AC019E2348
:10111000990F660B762FCB0141D0CDB7DEB7EAE051
:1011200024C02F923F924F925F926F927F928F9244
:101130009F92AF92BF92CF92DF92EF92FF920F9366
:101140001F93CF93DF93CDB7DEB7CA1BDB0B0FB670
:10115000F894DEBF0FBECDBF09942A88398848882D
:101160005F846E847D848C849B84AA84B984C884C3
:10117000DF80EE80FD800C811B81AA81B981CE0FBA
:10118000D11D0FB6F894DEBF0FBECDBFED0108959F
:10119000EE0FFF1F0590F491E02D0994DF93CF939C
:1011A0009F92A0E49A2E0024D001E001F001169550
:1011B0000795F794E794D794C794B794A79448F405
:1011C0001068A20FB31FC41FD51FE61FF71F081E0C
:1011D000191E220F331F441F551F661F771F881FBC
:1011E000991F9A9421F79D01AE01BF01C0011124FE
:1011F0009F90CF91DF91089510E0CEE2D0E003C040
:10120000FE01C6DF2196CF32D107D1F7F894FFCF88
:10121000000000005F0053075B00580055005E00AF
:101220005B200030780030002C2000205D006865D5
:101230006C6C6F2100736574757020636F6D706CDA
:04124000657465006C
:00000001FF
