:100000002DC051C050C0F4C539C64DC04CC04BC006
:100010004AC049C048C033C546C045C044C043C0BB
:1000200078C500003A00370000003B0038000000AF
:100030000102030400000000000000000039003647
:100040000002020201010101010101010201020499
:1000500080402010080402010800770711241FBE09
:10006000CFE5D2E0DEBFCDBF21E0A6EBB0E001C01E
:100070001D92AB33B207E1F710E0A0E6B0E0E6ED89
:10008000FFE002C005900D92A63BB107D9F710E042
:10009000CEE2D0E003C02197FE0195D7CD32D10743
:1000A000D1F711D696C7E0C5EDE4F0E08491E1E424
:1000B000F0E0E491EE2371F0F0E0EE0FFF1FE55C5D
:1000C000FF4FA591B491EC91E82381E090E021F4F9
:1000D00080E0089580E090E00895E82FEF70EB3025
:1000E00050F48295869586958370823051F18330E5
:1000F000C1F1813091F08E2F6CE037D7E92FF0E01D
:10010000EE0FFF1FEE0FFF1FE75FFE4F4081518193
:1001100062817381CB01BA010895F0E0EE0FFF1FF9
:10012000EE0FFF1FE75FFE4F80819181A281B381B7
:10013000482B592B6A2B7B2B40835183628373831B
:10014000E9CFF0E0EE0FFF1FEE0FFF1FE75FFE4F5E
:1001500080819181A281B381482359236A237B2323
:10016000EBCFF0E0EE0FFF1FEE0FFF1FE75FFE4F3C
:10017000E3CFCF92DF92EF92FF920F931F93CF9333
:10018000DF936C01EB017B01E40EF51E10E000E053
:10019000CE15DF0561F06991D601ED91FC910190DA
:1001A000F081E02DC6010995080F191FF1CFC80194
:1001B000DF91CF911F910F91FF90EF90DF90CF9043
:1001C000089590E0FC01E25DFF4F3491FC01E35B98
:1001D000FF4F2491FC01EF5BFF4FE491EE23B9F058
:1001E000332329F03130A1F480B78F7780BFF0E05E
:1001F000EE0FFF1FE85DFF4FA591B4918FB761111E
:1002000017C0F894EC9120952E232C938FBF08955E
:10021000323019F480B78F7DE9CF333021F48FB5B8
:100220008F778FBDE4CF343011F78FB58F7DF9CF45
:10023000F894EC912E2BE9CFCF93DF9390E0FC0163
:10024000E35BFF4F24918F5B9F4FFC0184918823D8
:10025000D1F090E0880F991FFC01EE5DFF4FA59152
:10026000B491FC01E85DFF4FC591D49161110EC0BE
:100270009FB7F8948C91E22FE0958E238C93288180
:10028000E223E8839FBFDF91CF9108958FB7F89461
:10029000EC91E22BEC938FBFF6CF9091EE0092950C
:1002A000990F990F907C8F77982B97B9369A36993A
:1002B000FECF84B195B108953FB7F8948091EA00DC
:1002C0009091EB00A091EC00B091ED0022B708B640
:1002D00000FE05C02F3F19F00196A11DB11D3FBFC3
:1002E000BA2FA92F982F8827BC01CD01620F711D4D
:1002F000811D911D43E0660F771F881F991F4A9546
:10030000D1F70895CF92DF92EF92FF92CF93DF93D0
:100310006B017C01D1DFEB01CFDF6C1B7D0B683EF5
:100320007340A0F0C114D104E104F10439F4DF9169
:10033000CF91FF90EF90DF90CF90089581E0C81AA1
:10034000D108E108F108C851DC4FE6CFC114D1044F
:10035000E104F10409F7EBCF8091C50081111EC0C3
:100360001092B9001092B8008FEF8093BA001092EB
:10037000BB001092BC001092BD001092BE00109203
:10038000BF001092C0001092C1001092C2001092E3
:10039000C3001092C40081E08093C50086EB90E01A
:1003A0000895EF92FF920F931F93CF93DF93DC0199
:1003B0001F96ED90FC905097E114F10479F481E0E0
:1003C00090E013969C938E93129790E080E0DF91DB
:1003D000CF911F910F91FF90EF9008951D96ED9191
:1003E000FC911E971C968C911C97982F90950FB797
:1003F00051962C915197122F117020FD6095F89411
:100400002081112319F1282B2083E7012197F1F78F
:1004100028E0462F50E0308160FF1AC0382B30832F
:10042000E7012197F1F7BA0175956795215089F792
:10043000112381F08081892380830FBF1F968D91C6
:100440009C910197F1F781E090E0C1CF2923DCCFA7
:100450003923E5CF9081892BEFCF089590E080E09C
:100460000895FB0101900020E9F73197AF01461B89
:10047000570BDC01ED91FC910280F381E02D099492
:10048000EF92FF920F931F93CF93DF93EC01E9DF7D
:100490008C01E881F9810190F081E02D6DE0CE01C1
:1004A00009957C01E881F9810190F081E02D6AE0F5
:1004B000CE0109950E0D1F1D800F911FDF91CF9169
:1004C0001F910F91FF90EF9008954F925F926F925E
:1004D0007F928F929F92AF92BF92CF92DF92EF92D4
:1004E000FF920F931F93CF93DF93CDB7DEB7A19702
:1004F0000FB6F894DEBF0FBECDBF8091D10091E062
:10050000980F9093D100837009F007C2C090090141
:10051000D0900A01E0900B01F0900C01D701C601C8
:1005200081729927AA27BB278197A105B10509F0F8
:100530008EC080910D0190910E01A0910F01B0919C
:10054000100140913101509132016091330170915D
:1005500034012B0166247724662777274114510440
:100560006104710489F08090210190902201A09093
:100570002301B09024014501AA24BB2401E0841486
:100580009504A604B70408F000E041155105610583
:10059000710581F08090210190902201A0902301AB
:1005A000B0902401AA24BB2411E084169506A60667
:1005B000B70608F010E00097A105B10529F0011178
:1005C00003C0112309F465C160E770E08FEE90E08D
:1005D00057DFE894C7F8D0F8002309F451C111237C
:1005E00009F44BC122E8C22A6894D0F88FE8C822E7
:1005F0008091190190911A01A0911B01B0911C01E9
:100600008093110190931201A0931301B0931401F0
:100610008091290190912A01A0912B01B0912C0188
:10062000AC01BD0144275527AA27BB270196A11D70
:10063000B11DAA27BB27842B952BA62BB72B809304
:10064000290190932A01A0932B01B0932C01C3FEA2
:100650006CC0C5FC6AC08091110190911201A091FB
:100660001301B09114010097A105B10509F040C133
:1006700080912D0190912E01A0912F01B091300118
:100680008D0122273327AA27BB27409121015091B2
:10069000220160912301709124014A015B01AA2487
:1006A000BB24011511052105310509F005C100978D
:1006B000A105B10531F088169906AA06BB0608F413
:1006C00004C161E870E08FEE90E0DADEEDEBCE225F
:1006D000F0E3CF2A8091150190911601A0911701A6
:1006E000B091180180930D0190930E01A0930F011A
:1006F000B09310018091290190912A01A0912B01C2
:10070000B0912C01AC01BD01662777278827992776
:100710001196842B952BA62BB72B809329019093B0
:100720002A01A0932B01B0932C01C0920901D09211
:100730000A01E0920B01F0920C01B5E0F694E79407
:10074000D794C794BA95D1F721E0C2266C2D617079
:1007500083E037DD8091390190913A01009709F4E7
:1007600075C061E970E07DDEA9E08A2EA1E09A2ED5
:1007700010E064E970E08091390190913A0171DEF6
:10078000F40141905190619071904F01F8E1AF2ECA
:10079000B12C8091390190913A010097D1F1730108
:1007A00062010A2C04C0F694E794D794C7940A9483
:1007B000D2F7FFE0FC1518F067E970E052DE4091D7
:1007C000390150913A01DD24EE24FF2419A2BE0123
:1007D0006F5D7F4FD701C601E4E0B695A795979569
:1007E0008795EA95D1F7282F2295207F3C2D321B43
:1007F000232F3A300CF08FC0205DFB012293BF0104
:100800006C017D01C114D104E104F10419F7CA019E
:1008100028DEF8E0AF1AB10828EFA2162FEFB206D3
:1008200009F0B7CF8091390190913A011B3019F04E
:1008300069E970E016DE1F5F1C3009F09ACF6CE9A1
:1008400070E08091390190913A011ADEA1960FB6BD
:10085000F894DEBF0FBECDBFDF91CF911F910F91F6
:10086000FF90EF90DF90CF90BF90AF909F908F90D0
:100870007F906F905F904F90089532E8C32AB6CE74
:10088000111103C06894C1F8B1CE6894C1F8D0F8D2
:10089000ADCE8E319105A105B10510F46894C6F86E
:1008A0000197A109B10980930D0190930E01A093C6
:1008B0000F01B0931001CBCEAB016627772740170D
:1008C00051076207730708F0F2CE809119019091E9
:1008D0001A01A0911B01B0911C018093110190930A
:1008E0001201A0931301B0931401E894C6F81DCF30
:1008F0008E319105A105B10510F46894C6F80197F1
:10090000A109B1098093110190931201A0931301E1
:10091000B09314010ACF295C70CF8091D20066E0B9
:1009200024D3933009F45AC098F5913009F43FC0AC
:10093000923009F447C082E287B93F9A3E9862E05C
:1009400070E080E090E0DEDC86B1877D86B9379A82
:10095000369A62E070E080E090E0D4DC3699FECF19
:1009600084B125B1322F282F890130E020E081E0C9
:1009700090E065E070E0E091D300F091D400892B25
:1009800009F059C0C12CD12CEE24EA94FE2C5BC096
:10099000943079F1953079F682E08093EE0082E828
:1009A0007CDC8C0130E020E090E080E041C082E01F
:1009B0008093EE0083E871DC8C0130E020E090E071
:1009C00080E0D7CF9093EE0080E867DC8C0130E0C8
:1009D00020E081E090E066E070E0CDCF82E080939F
:1009E000EE0081E85ADC8C0130E020E090E080E00D
:1009F000F2CF81E287B962E070E080E090E082DCD3
:100A0000369A3699FECF84B125B130E0322F2227B5
:100A1000032E000C440B550B282B60E070E381E1A2
:100A200090E0AFD289019A012227332781E090E03C
:100A300067E070E0A0CF980111270027CC24CA946A
:100A4000DC2CE12CF12C660F771F660F771FE60F69
:100A5000F71F80819181A281B3818C219D21AE21DC
:100A6000BF21802B912BA22BB32B80839183A28358
:100A7000B3838091D2008F5F8093D200E7CE1F9224
:100A80000F920FB60F9211242F933F938F939F9342
:100A9000AF93BF938091010190910201A091030156
:100AA000B09104013091E90026E0230F2D3768F161
:100AB00029E8230F0396A11DB11D2093E90080931F
:100AC000010190930201A0930301B093040180916E
:100AD000EA009091EB00A091EC00B091ED0001963E
:100AE000A11DB11D8093EA009093EB00A093EC0050
:100AF000B093ED00BF91AF919F918F913F912F9156
:100B00000F900FBE0F901F9018950296A11DB11D5A
:100B1000D4CF1F920F920FB60F9211241F932F93D1
:100B20003F934F935F936F937F938F939F93AF9375
:100B3000BF93CF93DF93EF93FF930EDCEC011FB1D4
:100B400080E48EB989859A85AB85BC858B2F9927E2
:100B5000AA27BB278FB9A8DA892B41F52C8127FD5D
:100B600025C0211137C01D8789859A85AB85BC8535
:100B7000BA2FA92F982F882789879A87AB87BC8798
:100B8000243089F44D815E816F817885E881F98117
:100B90008D85099569877A878B879C878D85806489
:100BA0008E878FEF8C838C818F5F8C83FF91EF9189
:100BB000DF91CF91BF91AF919F918F917F916F9175
:100BC0005F914F913F912F911F910F900FBE0F900A
:100BD0001F9018958D819E81AF81B885BA2FA92F5E
:100BE000982F8827812B8D839E83AF83B887BCCFB6
:100BF0001F920F920FB60F9211242F933F934F9392
:100C00005F936F937F938F939F93AF93BF93CF9394
:100C1000DF93EF93FF93A0DBEC0146DA892BE1F43D
:100C200061E085E009DB1C826E9A80E48EB98E85D6
:100C30008FB9FF91EF91DF91CF91BF91AF919F91CC
:100C40008F917F916F915F914F913F912F910F9075
:100C50000FBE0F901F9018956E981EB88FEF8C8363
:100C600060E085E0E9DAE5CF1F920F920FB60F92B0
:100C700011240F900FBE0F901F9018951F920F9286
:100C80000FB60F9211248F939F93AF93BF938091D0
:100C9000CD009091CE00A091CF00B091D0000196F0
:100CA000A11DB11D8093CD009093CE00A093CF00E5
:100CB000B093D000BF91AF919F918F910F900FBED5
:100CC0000F901F90189583E080BF83BF789499B7E9
:100CD000916099BF8FBD8EBD86B18877866886B9D1
:100CE000379A14BE88E19FE00FB6F894A89581BDAD
:100CF0000FBE91BDA89561E083E09EDA61E081E0DE
:100D00009BDAF894E9E0F1E089E391E01192119225
:100D1000119211928E179F07C9F70FEE10E081E331
:100D200090E09093FF008093FE006FE970E0C801AF
:100D3000A7DB10933A010093390186E092E0A4E624
:100D4000B0E78093350190933601A0933701B093BB
:100D5000380184E893E0A0E0B0E080930D01909327
:100D60000E01A0930F01B093100180931101909395
:100D70001201A0931301B093140180931901909371
:100D80001A01A0931B01B0931C018093150190934D
:100D90001601A0931701B093180110922901109227
:100DA0002A0110922B0110922C0189E290E0A0E020
:100DB000B0E08093090190930A01A0930B01B093D6
:100DC0000C0110922D0110922E0110922F01109201
:100DD00030011092310110923201109233011092C1
:100DE0003401BADAEC018DE690E09983888360E003
:100DF00085E022DA60E084E01FDA60E086E01CDA59
:100E000060E080E019DA88E18DB981E080BD80E2A0
:100E10008BBF1B830A83789466EA70E0C80130DBDD
:100E20002FB7F8948091010190910201A0910301E4
:100E3000B09104012FBF8093050190930601A09308
:100E40000701B0930801C8E1DCE08091090185FD4C
:100E50001AC096B116B80FB6F894A895C1BD0FBECA
:100E6000D1BDA89581B5806481BD85B7877E80613D
:100E700085BF85B7806285BF889585B78F7D85BF23
:100E800096B923DBE2CFA8952FB7F89480910101A2
:100E900090910201A0910301B09104012FBF4091F4
:100EA00005015091060160910701709108018417B6
:100EB0009507A607B707A8F008DB80910501909178
:100EC0000601A0910701B091080186509F4FAF4FD6
:100ED000BF4F8093050190930601A0930701B09343
:100EE000080169E170E080E090E00CDAAECFCF93CA
:100EF000DF93CFEED0E01B821A8288EE93E0A0E071
:100F0000B0E08C839D83AE83BF8384E690E09983B9
:100F10008883188A1F86E0E0F1E060816E7F60833D
:100F20006095617081E04DD961E081E085D9EEE4A2
:100F3000F0E0E491EC87E2E4F0E0E491F0E0EE0F21
:100F4000FF1FE85DFF4F859194919E878D87A9E0F3
:100F5000B1E0D1961C921E92D097E2EDF0E01082A3
:100F6000B283A183DF91CF910895991B79E004C0EA
:100F7000991F961708F0961B881F7A95C9F78095D8
:100F80000895A1E21A2EAA1BBB1BFD010DC0AA1FCA
:100F9000BB1FEE1FFF1FA217B307E407F50720F0E2
:100FA000A21BB30BE40BF50B661F771F881F991F5D
:100FB0001A9469F760957095809590959B01AC01A6
:100FC000BD01CF010895EE0FFF1F0590F491E02DB4
:060FD0000994F894FFCF24
:100FD60000000000D101B9002E022E022E022D02C1
:100FE600506F776572696E67206F66662070692E2E
:100FF60000506F776572696E67206F6E2070692E7C
:10100600005B200030780030002C2000205D006856
:10101600656C6C6F2100736574757020636F6D70FD
:061026006C65746500001A
:00000001FF
