:100000002DC051C050C072C6B7C64DC04CC04BC009
:100010004AC049C048C0B1C546C045C044C043C03D
:10002000F6C500003A00370000003B003800000031
:100030000102030400000000000000000039003647
:100040000002020201010101010101010201020499
:10005000804020100804020108006B0811241FBE14
:10006000CFE5D2E0DEBFCDBF20E0AEE6B0E001C01C
:100070001D92AD3EB207E1F710E0A0E6B0E0EAE580
:10008000F1E102C005900D92AE36B107D9F710E04C
:10009000CEE2D0E003C02197FE0157D8CD32D10780
:1000A000D1F78FD658C85EC6EDE4F0E08491E1E464
:1000B000F0E0E491EE2371F0F0E0EE0FFF1FE55C5D
:1000C000FF4FA591B491EC91E82381E090E021F4F9
:1000D00080E0089580E090E00895CF92DF92EF9263
:1000E000FF92E82F6A017B01482F4F70842F6EE04A
:1000F000FED7292F30E0220F331F220F331F493044
:1001000051F0E295E695E695E370E23011F1E330C7
:1001100061F1E13071F02D543F4FF901C080D18081
:10012000E280F380C701B601FF90EF90DF90CF909F
:100130000895F901ED54FF4F80819181A281B3812F
:10014000C82AD92AEA2AFB2AC082D182E282F38213
:10015000E9CFF901ED54FF4F80819181A281B381F4
:10016000C822D922EA22FB22EFCF2D543F4FF901BA
:10017000EBCF90E0FC01E25DFF4F3491FC01E35BCB
:10018000FF4F2491FC01EF5BFF4FE491EE23B9F0A8
:10019000332329F03130A1F480B78F7780BFF0E0AE
:1001A000EE0FFF1FE85DFF4FA591B4918FB761116E
:1001B00017C0F894EC9120952E232C938FBF0895AF
:1001C000323019F480B78F7DE9CF333021F48FB509
:1001D0008F778FBDE4CF343011F78FB58F7DF9CF96
:1001E000F894EC912E2BE9CFCF93DF9390E0FC01B4
:1001F000E35BFF4F24918F5B9F4FFC018491882329
:10020000D1F090E0880F991FFC01EE5DFF4FA591A2
:10021000B491FC01E85DFF4FC591D49161110EC00E
:100220009FB7F8948C91E22FE0958E238C932881D0
:10023000E223E8839FBFDF91CF9108958FB7F894B1
:10024000EC91E22BEC938FBFF6CF90918F009295BB
:10025000990F990F907C8F77982B97B9369A36998A
:10026000FECF84B195B108953FB7F89480918B008B
:1002700090918C00A0918D00B0918E0022B708B6AD
:1002800000FE05C02F3F19F00196A11DB11D3FBF13
:10029000BA2FA92F982F8827BC01CD01620F711D9D
:1002A000811D911D43E0660F771F881F991F4A9596
:1002B000D1F70895CF92DF92EF92FF92CF93DF9321
:1002C0006B017C01D1DFEB01CFDF6C1B7D0B683E46
:1002D0007340A0F0C114D104E104F10439F4DF91BA
:1002E000CF91FF90EF90DF90CF90089581E0C81AF2
:1002F000D108E108F108C851DC4FE6CFC114D104A0
:10030000E104F10409F7EBCF81E287B962E070E024
:1003100080E090E0CFDF369A3699FECF84B125B1E8
:1003200030E0322F2227032E000C440B550B282BD4
:1003300060E070E381E190E0E6D6C901089582E2D1
:1003400087B93F9A3E9862E070E080E090E0B2DFCB
:1003500086B1877D86B9379A369A62E070E080E090
:1003600090E0A8DF3699FECF84B195B108958091D1
:100370007D0081111EC010927100109270008FEFED
:1003800080937200109273001092740010927500A6
:1003900010927600109277001092780010927900F7
:1003A00010927A0010927B0010927C0081E0809382
:1003B0007D008EE690E00895FB0101900020E9F7B2
:1003C0003197AF01461B570BDC01ED91FC91028088
:1003D000F381E02D09944F925F926F927F928F92FA
:1003E0009F92AF92BF92CF92DF92EF92FF920F93C4
:1003F0001F93CF93DF93CDB7DEB7A1970FB6F894D5
:10040000DEBF0FBECDBF8091890091E0980F909321
:100410008900837009F053C2C090B300D090B4003B
:10042000E090B500F090B600D701C60115E0B69592
:10043000A795979587951A95D1F7E82FE170D6FE85
:10044000D4C114BE03E8D022D701C6018172992716
:10045000AA27BB278197A105B10509F081C040916A
:10046000B7005091B8006091B9007091BA008090C7
:10047000DF009090E000A090E100B090E200C501A4
:10048000AA27BB27AA24BB244090CB005090CC00C5
:100490006090CD007090CE000097A105B10549F0A5
:1004A000830122273327F1E0081719072A073B07A2
:1004B00008F0F0E081149104A104B10441F0662435
:1004C000772491E0481459046A047B0408F090E012
:1004D000411551056105710529F0F11103C09923FA
:1004E00009F4A2C1E894C7F8D0F8FF2309F493C136
:1004F000992309F48DC122E8C22A6894D0F88FE8C4
:10050000C8228091C3009091C400A091C500B09111
:10051000C6008093BB009093BC00A093BD00B09335
:10052000BE008091D3009091D400A091D500B091ED
:10053000D600AC01BD0144275527AA27BB27019649
:10054000A11DB11DAA27BB27842B952BA62BB72B4A
:100550008093D3009093D400A093D500B093D6009D
:10056000C3FE67C0C5FC65C08091BB009091BC0014
:10057000A091BD00B091BE000097A105B10509F0A2
:1005800083C18091DB009091DC00A091DD00B091EF
:10059000DE004D01AA24BB24AA27BB274091CB0033
:1005A0005091CC006091CD007091CE002A013B01AA
:1005B0006624772481149104A104B10409F048C190
:1005C0000097A105B10531F0481659066A067B0669
:1005D00008F447C1ADEBCA22B0E3CB2A8091BF003B
:1005E0009091C000A091C100B091C2008093B7006B
:1005F0009093B800A093B900B093BA008091D30053
:100600009091D400A091D500B091D600AC01BD016D
:1006100066277727882799271196842B952BA62B59
:10062000B72B8093D3009093D400A093D500B093C0
:10063000D600C092B300D092B400E092B500F09220
:10064000B60081E0B701A6014072552766277727DB
:10065000C5FE80E0E81769F0452B462B472B09F4CF
:100660002AC1D1FE24C18FEFDF98DF9A8150E1F7D4
:10067000DF986C2D607481E07CDD8091D3009091D7
:10068000D400A091D500B091D600AA27BB2761E085
:10069000892B8A2B8B2B09F460E082E06ADD809144
:1006A000EB009091EC00009709F488C060E670E0E0
:1006B00083DE93EB892E90E0992E10E063E670E0E4
:1006C0008091EB009091EC0077DEF4014190519025
:1006D000619071904F0188E1A82EB12C8091EB00C0
:1006E0009091EC000097D1F1730162010A2C04C0D3
:1006F000F694E794D794C7940A94D2F7FFE0FC15D8
:1007000018F066E670E058DE4091EB005091EC0086
:10071000DD24EE24FF2419A2BE016F5D7F4FD701B7
:10072000C60104E0B695A795979587950A95D1F7E8
:10073000282F2295207F0C2D021B202F0A300CF031
:10074000BCC0205DFB012293BF016C017D01C1147F
:10075000D104E104F10419F7CA012EDEF8E0AF1A62
:10076000B10808EFA0160FEFB00609F0B7CF8091DF
:10077000EB009091EC001D3019F068E670E01CDE93
:100780001F5F1E3009F09ACFE090EB00F090EC0074
:100790006BE670E0C70110DED701ED91FC9101908E
:1007A000F081E02D6DE0C7010995D701ED91FC9135
:1007B0000190F081E02D6AE0C7010995A1960FB67E
:1007C000F894DEBF0FBECDBFDF91CF911F910F9187
:1007D000FF90EF90DF90CF90BF90AF909F908F9061
:1007E0007F906F905F904F90089584B790E0982F1E
:1007F0008827990F990F88279C73092E000CAA0B44
:10080000BB0B13ECD122C82AD92AEA2AFB2A1CCE18
:1008100032E8C32A74CE911103C06894C1F86FCE38
:100820006894C1F8D0F86BCE4E3151056105710561
:1008300010F46894C6F84150510961097109409358
:10084000B7005093B8006093B9007093BA0088CE97
:10085000AB0166277727481559056A057B0508F01F
:10086000AFCE8091C3009091C400A091C500B0911B
:10087000C6008093BB009093BC00A093BD00B093D2
:10088000BE00E894C6F8D5CE8E319105A105B1051C
:1008900010F46894C6F80197A109B1098093BB00D0
:1008A0009093BC00A093BD00B093BE00C2CE60E0A8
:1008B00083E05FDCDECE61E0FBCF295C43CF80913B
:1008C000900066E014D4933009F4F3C008F048C0F7
:1008D000913009F481C0923009F4B4C030DD409108
:1008E000A7005091A8006091A9007091AA006A0128
:1008F0007B01E5E0F694E794D794C794EA95D1F7A5
:100900004C195D096E097F098A019B01080F191FA7
:10091000211D311DD901C8018093A7009093A80023
:10092000A093A900B093AA00F5E0B695A795979576
:100930008795FA95D1F7AA27BB2741E050E025E03B
:1009400030E0E0919100F0919200AA27BB27452B5F
:1009500009F0EFC0C12CD12CEE24EA94FE2CF1C09A
:10096000943009F4B2C0953009F0B8CF82E080939A
:100970008F0082E86ADC4091970050919800609166
:10098000990070919A006A017B01E5E0F694E79482
:10099000D794C794EA95D1F74C195D096E097F0980
:1009A0008A019B01080F191F211D311DD901C801A2
:1009B0008093970090939800A0939900B0939A0029
:1009C000F5E0B695A79597958795FA95D1F7AA275B
:1009D000BB2750E040E0AAC082E080938F0083E80C
:1009E00034DC40919B0050919C0060919D0070917F
:1009F0009E006A017B0135E0F694E794D794C79492
:100A00003A95D1F74C195D096E097F098A019B015E
:100A1000080F191F211D311DD901C80180939B00AA
:100A200090939C00A0939D00B0939E0045E0B695E6
:100A3000A795979587954A95D1F7AA27BB2750E0A8
:100A400040E07DCF90938F0080E8FFDB40919F00D6
:100A50005091A0006091A1007091A2006A017B01F9
:100A600005E0F694E794D794C7940A95D1F74C190A
:100A70005D096E097F098A019B01080F191F211D5D
:100A8000311DD901C80180939F009093A000A093CD
:100A9000A100B093A20025E0B695A79597958795FC
:100AA0002A95D1F7AA27BB2741E050E026E030E0A5
:100AB00048CF82E080938F0081E8C7DB092E000CCD
:100AC000AA0BBB0B50E040E0F1CF1EDC409193003D
:100AD0005091940060919500709196006A017B019D
:100AE000A5E0F694E794D794C794AA95D1F74C194A
:100AF0005D096E097F098A019B01080F191F211DDD
:100B0000311DD901C8018093930090939400A09364
:100B10009500B093960015E0B695A79597958795A3
:100B20001A95D1F7AA27BB2741E050E027E030E033
:100B300008CFDC0199278827CC24CA94DC2CE12C2F
:100B4000F12C220F331F220F331FE20FF31F4081BE
:100B50005181628173814C215D216E217F21842B23
:100B6000952BA62BB72B80839183A283B38380918F
:100B700090008F5F8093900021CE1F920F920FB64E
:100B80000F9211242F933F938F939F93AF93BF9313
:100B90008091AB009091AC00A091AD00B091AE00FF
:100BA00030918A0026E0230F2D3768F129E8230FC2
:100BB0000396A11DB11D20938A008093AB009093F2
:100BC000AC00A093AD00B093AE0080918B009091EB
:100BD0008C00A0918D00B0918E000196A11DB11DD9
:100BE00080938B0090938C00A0938D00B0938E0027
:100BF000BF91AF919F918F913F912F910F900FBE19
:100C00000F901F9018950296A11DB11DD4CF1F9271
:100C10000F920FB60F9211241F932F933F934F9370
:100C20005F936F937F938F939F93AF93BF93CF9374
:100C3000DF93EF93FF939BDBEC011FB180E48EB950
:100C400089859A85AB85BC858B2F9927AA27BB27D9
:100C50008FB92ADA892B41F52C8127FD25C0211176
:100C600037C01D8789859A85AB85BC85BA2FA92F8A
:100C7000982F882789879A87AB87BC87243089F487
:100C80004D815E816F817885E881F9818D85099537
:100C900069877A878B879C878D8580648E878FEFA5
:100CA0008C838C818F5F8C83FF91EF91DF91CF914B
:100CB000BF91AF919F918F917F916F915F914F9174
:100CC0003F912F911F910F900FBE0F901F9018957D
:100CD0008D819E81AF81B885BA2FA92F982F882743
:100CE000812B8D839E83AF83B887BCCF1F920F92D9
:100CF0000FB60F9211242F933F934F935F936F93EF
:100D00007F938F939F93AF93BF93CF93DF93EF9393
:100D1000FF932DDBEC01C8D9892BE1F461E085E07C
:100D200063DA1C826E9A80E48EB98E858FB9FF914A
:100D3000EF91DF91CF91BF91AF919F918F917F9173
:100D40006F915F914F913F912F910F900FBE0F9038
:100D50001F9018956E981EB88FEF8C8360E085E029
:100D600043DAE5CF1F920F920FB60F9211240F9026
:100D70000FBE0F901F9018951F920F920FB60F92F3
:100D800011248F939F93AF93BF938091850090918F
:100D90008600A0918700B09188000196A11DB11D29
:100DA0008093850090938600A0938700B09388007D
:100DB000BF91AF919F918F910F900FBE0F901F9099
:100DC000189583E080BF83BF789499B7916099BFED
:100DD0008FBD8EBD86B18877866886B9379A88E1DF
:100DE0009FE00FB6F894A89581BD0FBE91BDA89560
:100DF00061E083E0F9D961E081E0F6D961E082E069
:100E0000F3D9F894E3EBF0E0119211921192119260
:100E100080E0EB3EF807C1F781E692E7A3E6B3E78F
:100E20008093E3009093E400A093E500B093E60084
:100E300080E098E6A3E6B4E78093E7009093E800AB
:100E4000A093E900B093EA0088E092E0A4E6B0E75E
:100E50008093D7009093D800A093D900B093DA0084
:100E600084E893E0A0E0B0E08093B7009093B800EE
:100E7000A093B900B093BA008093BB009093BC00DC
:100E8000A093BD00B093BE008093C3009093C400B4
:100E9000A093C500B093C6008093BF009093C0009C
:100EA000A093C100B093C2001092D3001092D4005E
:100EB0001092D5001092D60089E290E0A0E0B0E058
:100EC0008093B3009093B400A093B500B093B600A4
:100ED0001092DB001092DC001092DD001092DE0018
:100EE0001092DF001092E0001092E1001092E200F8
:100EF0003EDA2DE630E0FC013183208360E085E0BE
:100F000073D960E084E070D960E086E06DD960E07C
:100F100080E06AD988E18DB981E080BD80E28BBF35
:100F20007894F2D9B0E0A0E025E0880F991FAA1FBD
:100F3000BB1F2A95D1F78093930090939400A093C0
:100F40009500B0939600FBD9B0E0A0E035E0880FA3
:100F5000991FAA1FBB1F3A95D1F78093A7009093C2
:100F6000A800A093A900B093AA0082E080938F000C
:100F700082E86BD9B0E0A0E045E0880F991FAA1F76
:100F8000BB1F4A95D1F78093970090939800A09348
:100F90009900B0939A0083E858D9B0E0A0E055E0FA
:100FA000880F991FAA1FBB1F5A95D1F780939B00EA
:100FB00090939C00A0939D00B0939E0080E845D93B
:100FC000B0E0A0E065E0880F991FAA1FBB1F6A95DB
:100FD000D1F780939F009093A000A093A100B093BD
:100FE000A20081E832D9B0E0A0E075E0880F991F37
:100FF000AA1FBB1F7A95D1F78093A3009093A400FA
:10100000A093A500B093A6002FB7F8948091AB00F1
:101010009091AC00A091AD00B091AE002FBF809335
:10102000AF009093B000A093B100B093B200C8E1BC
:10103000DCE08091B30085FD1AC096B116B80FB6FA
:10104000F894A895C1BD0FBED1BDA89581B58064A7
:1010500081BD85B7877E806185BF85B7806285BF8A
:10106000889585B78F7D85BF96B9B5D9E2CFA8950C
:101070002FB7F8948091AB009091AC00A091AD0097
:10108000B091AE002FBF4091AF005091B000609181
:10109000B1007091B20084179507A607B707A8F0B2
:1010A0009AD98091AF009091B000A091B100B09119
:1010B000B20086509F4FAF4FBF4F8093AF009093C9
:1010C000B000A093B100B093B20069E170E080E09D
:1010D00090E0F0D8AECFA3EBB0E0D9961C921E9270
:1010E000D897E0E9F0E01082B283A1830895991BBC
:1010F00079E004C0991F961708F0961B881F7A950F
:10110000C9F780950895A1E21A2EAA1BBB1BFD0109
:101110000DC0AA1FBB1FEE1FFF1FA217B307E407D6
:10112000F50720F0A21BB30BE40BF50B661F771F2E
:10113000881F991F1A9469F760957095809590950E
:101140009B01AC01BD01CF010895EE0FFF1F05907B
:0A115000F491E02D0994F894FFCF0C
:0E115A005B200030780030002C2000205D006B
:00000001FF
