:100000002EC052C051C0F1C44AC14EC04DC04CC0F8
:100010004BC04AC049C060C647C046C045C044C086
:1000200056C50000010203040000000000000001AA
:1000300002048040201008040201080202020101AB
:100040000101010101010200003900360000003BFE
:1000500000380000003A003700008D049E0411248F
:100060001FBECFE5D2E0DEBFCDBF10E0A0E6B0E01E
:10007000E4EBF0E102C005900D92A439B107D9F785
:1000800021E0A4E9B0E001C01D92A131B207E1F77F
:1000900010E0CEE2D0E003C02197FE01F9D7CD32C7
:1000A000D107D1F700D6FAC732C380E090E00895B7
:1000B00080E090E0089580E090E0089508951F9317
:1000C000CF93DF93DC011F968D919C915097009701
:1000D00039F421E030E013963C932E9312973BC005
:1000E0001D96ED91FC911E971C962C911C97322F1A
:1000F00030951FB751964C915197742F717040FDF8
:100100006095F8944081772311F0422B01C043237E
:100110004083EC012197F1F748E0508160FF02C075
:10012000522B01C053235083EC012197F1F76695C0
:10013000415099F78081772319F08323808302C08F
:10014000282B20831FBF1F968D919C91509701975C
:10015000F1F781E090E0DF91CF911F91089508952C
:100160001F93CF93DF93EC01162F6989609561701F
:10017000812FDDD661E0812F9CD6812F90E0FC019C
:10018000E15DFF4FE491EC87FC01E55CFF4FE491FA
:10019000F0E0EE0FFF1FE35BFF4F859194919E8788
:1001A0008D87DF91CF911F910895FC0113821282F8
:1001B00088EE93E0A0E0B0E084839583A683B783C4
:1001C00084E690E091838083108A1786818940FBC2
:1001D00080F9818BCF01C4CFCF93DF93EC019A01DB
:1001E000AB0160E874E88EE190E036D72430310549
:1001F00018F02350310902C021E030E0388B2F87FE
:10020000DF91CF910895E82FEF70E93050F4829597
:10021000869586958370823021F1833091F181300B
:1002200081F08E2F6AE0EAD6E92FF0E0EE0FFF1F93
:10023000EE0FFF1FE055FF4F4081518162817381B6
:100240002BC0F0E0EE0FFF1FEE0FFF1FE055FF4F3A
:1002500080819181A281B381482B592B6A2B7B2B02
:1002600017C0F0E0EE0FFF1FEE0FFF1FE055FF4F2E
:1002700080819181A281B381482359236A237B2302
:1002800007C0F0E0EE0FFF1FEE0FFF1FE055FF4F1E
:100290004083518362837383CB01BA0108951F9217
:1002A0000F920FB60F9211248F939F93AF93BF932A
:1002B0008091EC009091ED00A091EE00B091EF00E4
:1002C0000196A11DB11D8093EC009093ED00A093C9
:1002D000EE00B093EF00BF91AF919F918F910F907F
:1002E0000FBE0F901F9018954F925F926F927F9262
:1002F0008F929F92AF92BF92EF92FF920F931F93B4
:10030000CF938091B0009091B100A091B200B091D4
:10031000B300AC01BD0141725527662777274132F2
:1003200051056105710509F050C04091B40050912C
:10033000B5006091B6007091B70041155105610597
:10034000710589F58F7882604091C0005091C1009D
:100350006091C2007091C3004093B8005093B900FF
:100360006093BA007093BB004091D0005091D100CF
:100370006091D2007091D3008A019B010027112760
:100380004F5F5F4F6F4F7F4F66277727402B512B73
:10039000622B732B4093D0005093D1006093D20016
:1003A0007093D30012C04E3151056105710508F4F8
:1003B000806441505109610971094093B400509320
:1003C000B5006093B6007093B70083FF50C085FD01
:1003D0004EC04091B8005091B9006091BA00709140
:1003E000BB00411551056105710579F58D7B806371
:1003F0004091BC005091BD006091BE007091BF0063
:100400004093B4005093B5006093B6007093B7006A
:100410004091D0005091D1006091D2007091D300F2
:100420008A019B0100271127662777272F5F3F4FFF
:10043000402B512B622B732B4093D0005093D10053
:100440006093D2007093D30012C04E315105610504
:10045000710508F4806441505109610971094093A4
:10046000B8005093B9006093BA007093BB008093BA
:10047000B0009093B100A093B200B093B30025E018
:10048000B695A795979587952A95D1F721E082276C
:10049000682F617083E04BD58091D8009091D9008E
:1004A000009709F45BC060E770E06CD380EBE82E46
:1004B00080E0F82EC0E063E770E08091D800909172
:1004C000D90060D3F70141905190619071907F0104
:1004D00008E110E053014201002E04C0B694A79435
:1004E000979487940A94D2F7282D8091D800909100
:1004F000D900009769F0203118F466E770E042D324
:1005000040E150E0682D8091D8009091D900C5D38A
:1005100008501109083FFFEF1F07E1F6C93039F015
:1005200068E770E08091D8009091D9002BD3CF5F1D
:10053000CA3009F66BE770E08091D8009091D9003D
:10054000CF911F910F91FF90EF90BF90AF909F9030
:100550008F907F906F905F904F902EC3CF911F919F
:100560000F91FF90EF90BF90AF909F908F907F90F2
:100570006F905F904F90089514BE9FE088E10FB692
:10058000F894A89581BD0FBE91BDA89561E083E068
:1005900090D461E081E08DD4F894E0EBF0E011922A
:1005A00011921192119280E0E83DF807C1F740E006
:1005B00056E960E070E08AED90E00EDE6EE770E0F4
:1005C0008AED90E0F9D28AED90E09093D900809383
:1005D000D80085E092E0A4E6B0E78093D400909341
:1005E000D500A093D600B093D70084E893E0A0E0B4
:1005F000B0E08093B4009093B500A093B600B093A0
:10060000B7008093B8009093B900A093BA00B0935C
:10061000BB008093C0009093C100A093C200B09330
:10062000C3008093BC009093BD00A093BE00B09324
:10063000BF001092D0001092D1001092D200109200
:10064000D30089E290E0A0E0B0E08093B000909306
:10065000B100A093B200B093B3008091F00081117B
:100660001EC01092FB001092FA008FEF8093FC00E6
:100670001092FD001092FE001092FF0010920001F7
:1006800010920101109202011092030110920401D4
:10069000109205011092060181E08093F00083E042
:1006A00091E09093F9008093F80088EF90E06ED18C
:1006B0008AED90E09093FB008093FA00789465E8CF
:1006C00070E07AD253D36093950070939600809334
:1006D000970090939800089596B116B82CE088E1A1
:1006E0000FB6F894A89581BD0FBE21BDA89581B520
:1006F000806481BD85B7877E806185BF85B7806254
:1007000085BF889585B78F7D85BF96B908951F925F
:100710000F920FB60F9211240F900FBE0F901F90E3
:100720001895CF92DF92EF92FF920F931F93CF9382
:10073000DF93EC01888166E061D4933009F441C015
:1007400028F4913041F1923091F106C0943009F4CF
:1007500044C0953009F463C082E287B93F9A3E985D
:1007600062E070E080E090E034D386B1877D86B9A6
:10077000379A369A62E070E080E090E02AD33699AA
:10078000FECF24B185B130E0382B890120E030E084
:1007900081E090E009C082E056D383E857D38C0112
:1007A00020E030E080E090E065E070E043C082E06F
:1007B0004AD380E84BD38C0120E030E081E090E028
:1007C00009C082E040D381E841D38C0120E030E0D1
:1007D00080E090E066E070E02DC081E287B962E0E1
:1007E00070E080E090E0F5D2369A3699FECF84B181
:1007F00025B130E0322F2227A901330F660B770B8A
:100800009A01AB01282B60E070E381E190E002D413
:1008100089019A012227332781E090E009C082E014
:1008200012D382E813D38C0120E030E080E090E026
:1008300067E070E0E981FA81892B41F09801112786
:1008400000278FEF9FEFA0E0B0E004C080E090E0D1
:10085000AFEFBFEF660F771F660F771FE60FF71F2B
:10086000C080D180E280F3808C219D21AE21BF2108
:10087000802B912BA22BB32B80839183A283B383F4
:1008800088818F5F8883DF91CF911F910F91FF90B7
:10089000EF90DF90CF9008958091940091E0980FB1
:1008A00090939400837009F41FCD89E990E039CFCB
:1008B0000F931F938091B00085FD04C00DDF1F9141
:1008C0000F91EACFA89552D2009195001091960011
:1008D0002091970030919800601771078207930765
:1008E000A8F0DADF8091950090919600A091970092
:1008F000B091980086509F4FAF4FBF4F80939500A7
:1009000090939600A0939700B093980069E170E0EF
:1009100080E090E01F910F915CC240E061E08AEDC1
:1009200090E043DCA0EBB0E099961C921E92989761
:10093000E9E9F0E01082B283A18308958AED90E0A6
:100940000ECC8091F00081111EC01092FB0010921D
:10095000FA008FEF8093FC001092FD001092FE00D1
:100960001092FF00109200011092010110920201FA
:1009700010920301109204011092050110920601D9
:1009800081E08093F00088EF90E0089560E085E0DA
:1009900090D260E084E08DD260E086E08AD260E0B0
:1009A00080E087D288E18DB981E080BD80E28BBF95
:1009B0000895CF93DF93EC0180E0EDD2892B61F4B1
:1009C00061E085E076D21C826E9A80E48EB98E85D5
:1009D0008FB9DF91CF9108956E981EB88FEF8C83F9
:1009E00060E085E0DF91CF9164C21F920F920FB655
:1009F0000F9211242F933F934F935F936F937F93A5
:100A00008F939F93AF93BF93EF93FF939ADFD1DFC1
:100A1000FF91EF91BF91AF919F918F917F916F91D6
:100A20005F914F913F912F910F900FBE0F901F90AC
:100A300018951F93CF93DF93EC011FB180E48EB91B
:100A400089859A85AB85BC858B2F9927AA27BB27DB
:100A50008FB980E0A0D2892BB1F52C8127FD33C05E
:100A6000211102C01D870DC08D819E81AF81B88587
:100A7000BA2FA92F982F8827812B8D839E83AF8330
:100A8000B88789859A85AB85BC85BA2FA92F982F01
:100A9000882789879A87AB87BC87243089F44D8162
:100AA0005E816F817885E881F9818D8509956987F7
:100AB0007A878B879C878D8580648E878FEF8C8368
:100AC0008C818F5F8C83DF91CF911F9108951F924E
:100AD0000F920FB60F9211242F933F934F935F9372
:100AE0006F937F938F939F93AF93BF93EF93FF93F6
:100AF00028DF9FDFFF91EF91BF91AF919F918F9181
:100B00007F916F915F914F913F912F910F900FBE09
:100B10000F901F901895CF92DF92EF92FF920F9354
:100B20001F93CF93DF936C01EB017B01E40EF51E65
:100B300000E010E0CE15DF0561F06991D601ED917E
:100B4000FC910190F081E02DC6010995080F191F55
:100B5000F1CFC801DF91CF911F910F91FF90EF90DE
:100B6000DF90CF900895FB0101900020E9F73197C5
:100B7000AF01461B570BDC01ED91FC910280F38124
:100B8000E02D0994F0CFDC01ED91FC910190F08112
:100B9000E02D09940F931F93CF93DF93EC016DE049
:100BA000F2DF8C016AE0CE01EEDF800F911FDF9152
:100BB000CF911F910F9108950F931F93CF93DF93C0
:100BC000EC01D1DF8C01CE01E5DF800F911FDF91B9
:100BD000CF911F910F9108958F929F92AF92BF92E4
:100BE000CF92DF92EF92FF920F931F93CF93DF93F9
:100BF000CDB7DEB7A1970FB6F894DEBF0FBECDBF5D
:100C00006C01142FE52FCB01022F19A2223008F41A
:100C10000AE07E0121E2E20EF11C802E912CA12C33
:100C2000B12C612F7E2FA5019401F4D1802F622F6A
:100C3000DCD1181B81E0E81AF1081A3014F4105DB9
:100C400001C0195CF7011083122FE32FCA01232B77
:100C5000242B252B31F7B701C60185DFA1960FB6EE
:100C6000F894DEBF0FBECDBFDF91CF911F910F91E2
:100C7000FF90EF90DF90CF90BF90AF909F908F90BC
:100C800008952115310541F4DC01ED91FC910190AD
:100C9000F081E02D642F09949FCF9A01462F50E0F8
:100CA00060E070E0EECF81B781BFB8D065DC00DED8
:100CB000FECF8EB5887F8EBD8FB581608FBD8FB51D
:100CC0008D7F8FBD8EB5877F8EBD8EB58F7E8EBD9D
:100CD0008EB583608EBD08951F920F920FB60F924E
:100CE00011242F933F938F939F93AF93BF93809142
:100CF000080190910901A0910A01B0910B01309176
:100D0000070126E0230F2D3730F029E8230F039643
:100D1000A11DB11D03C00296A11DB11D20930701A5
:100D20008093080190930901A0930A01B0930B01ED
:100D300080910C0190910D01A0910E01B0910F01D5
:100D40000196A11DB11D80930C0190930D01A093FC
:100D50000E01B0930F01BF91AF919F918F913F9181
:100D60002F910F900FBE0F901F9018952FB7F894EA
:100D7000609108017091090180910A0190910B0125
:100D80002FBF08953FB7F89480910C0190910D0109
:100D9000A0910E01B0910F0122B708B600FE05C068
:100DA0002F3F19F00196A11DB11D3FBFBA2FA92FEA
:100DB000982F8827820F911DA11DB11DBC01CD0167
:100DC00043E0660F771F881F991F4A95D1F7089552
:100DD0000895CF92DF92EF92FF92CF93DF936B0152
:100DE0007C01D0DFEB01C114D104E104F10479F0FE
:100DF000EFDFC8DF6C1B7D0B683E7340A0F381E022
:100E0000C81AD108E108F108C851DC4FF2CFDF91D0
:100E1000CF91FF90EF90DF90CF90089580B78260E0
:100E200080BF80B7816080BF83B7887F836083BFC6
:100E3000789489B7816089BF3CDF86B188778668FE
:100E400086B9379A08958093100108959091100102
:100E50009295990F990F907C8F73892B87B9369A49
:100E60003699FECF84B125B190E0922B0895813060
:100E700031F480B78F7780BF80B78F7B07C0823017
:100E800039F480B78F7D80BF80B78F7E80BF089593
:100E9000833031F48FB58F778FBD8FB58F7B07C0CF
:100EA000843031F48FB58F7D8FBD8FB58F7E8FBD30
:100EB0000895CF93DF9387FD8FEF90E0FC01E15D14
:100EC000FF4F2491FC01E55CFF4F8491882361F181
:100ED00090E0880F991FFC01ED5AFF4FC591D49106
:100EE000FC01E35BFF4FA591B491611109C09FB76D
:100EF000F8948881209582238883EC912E230BC05F
:100F0000623061F49FB7F8948881322F3095832343
:100F10008883EC912E2B2C939FBF06C08FB7F8943B
:100F2000E8812E2B28838FBFDF91CF9108951F93E7
:100F3000CF93DF93162F87FD8FEF282F30E0F90135
:100F4000EE5DFF4F8491F901E15DFF4FD491F9010E
:100F5000E55CFF4FC491CC23D1F0811188DFEC2FE9
:100F6000F0E0EE0FFF1FE35BFF4FA591B49111116D
:100F700008C09FB7F8948C91D095D823DC939FBF7D
:100F800006C08FB7F894EC91DE2BDC938FBFDF9116
:100F9000CF911F910895CF93DF9387FD8FEF282F77
:100FA00030E0F901EE5DFF4F8491F901E15DFF4F03
:100FB000D491F901E55CFF4FC491CC2389F08111F4
:100FC00056DFEC2FF0E0EE0FFF1FE95BFF4FA5911E
:100FD000B491EC91ED2381E090E021F480E002C037
:100FE00080E090E0DF91CF910895002480FD060E0F
:100FF000660F11F08695D1F7802D0895991B79E041
:1010000004C0991F961708F0961B881F7A95C9F798
:1010100080950895A1E21A2EAA1BBB1BFD010DC0ED
:10102000AA1FBB1FEE1FFF1FA217B307E407F50798
:1010300020F0A21BB30BE40BF50B661F771F881F74
:10104000991F1A9469F760957095809590959B010A
:10105000AC01BD01CF010895052E97FB16F4009455
:101060000FD057FD05D0D6DF07FC02D046F408C0EC
:1010700050954095309521953F4F4F4F5F4F0895C4
:1010800090958095709561957F4F8F4F9F4F0895F4
:10109000EE0FFF1F0590F491E02D099410E0CEE2D1
:1010A000D0E003C0FE01F4DF2196CF32D107D1F7A3
:0410B000F894FFCFE2
:1010B400000000005F008B055B00580055005E00D7
:1010C4005B200030780030002C2000205D00686533
:1010D4006C6C6F2100736574757020636F6D706C38
:0410E40065746500CA
:00000001FF
