:100000002DC051C050C096C6DBC64DC04CC04BC0C1
:100010004AC049C048C0D5C546C045C044C043C019
:100020001AC600003A00370000003B00380000000C
:100030000102030400000000000000000039003647
:100040000002020201010101010101010201020499
:1000500080402010080402010800190811241FBE66
:10006000CFE5D2E0DEBFCDBF21E0A4E2B1E001C028
:100070001D92A93AB207E1F711E0A0E6B0E0ECE288
:10008000F1E102C005900D92A432B107D9F710E05A
:10009000CEE2D0E003C02197FE0140D8CD32D10797
:1000A000D1F7B3D641C882C6EDE4F0E08491E1E433
:1000B000F0E0E491EE2371F0F0E0EE0FFF1FE55C5D
:1000C000FF4FA591B491EC91E82381E090E021F4F9
:1000D00080E0089580E090E00895E82FEF70EB3025
:1000E00050F48295869586958370823051F18330E5
:1000F000C1F1813091F08E2F6CE0E2D7E92FF0E072
:10010000EE0FFF1FEE0FFF1FE958FE4F4081518198
:1001100062817381CB01BA010895F0E0EE0FFF1FF9
:10012000EE0FFF1FE958FE4F80819181A281B381BC
:10013000482B592B6A2B7B2B40835183628373831B
:10014000E9CFF0E0EE0FFF1FEE0FFF1FE958FE4F63
:1001500080819181A281B381482359236A237B2323
:10016000EBCFF0E0EE0FFF1FEE0FFF1FE958FE4F41
:10017000E3CFCF92DF92EF92FF920F931F93CF9333
:10018000DF936C01EB017B01E40EF51E10E000E053
:10019000CE15DF0561F06991D601ED91FC910190DA
:1001A000F081E02DC6010995080F191FF1CFC80194
:1001B000DF91CF911F910F91FF90EF90DF90CF9043
:1001C000089590E0FC01E25DFF4F3491FC01E35B98
:1001D000FF4F2491FC01EF5BFF4FE491EE23B9F058
:1001E000332329F03130A1F480B78F7780BFF0E05E
:1001F000EE0FFF1FE85DFF4FA591B4918FB761111E
:1002000017C0F894EC9120952E232C938FBF08955E
:10021000323019F480B78F7DE9CF333021F48FB5B8
:100220008F778FBDE4CF343011F78FB58F7DF9CF45
:10023000F894EC912E2BE9CFCF93DF9390E0FC0163
:10024000E35BFF4F24918F5B9F4FFC0184918823D8
:10025000D1F090E0880F991FFC01EE5DFF4FA59152
:10026000B491FC01E85DFF4FC591D49161110EC0BE
:100270009FB7F8948C91E22FE0958E238C93288180
:10028000E223E8839FBFDF91CF9108958FB7F89461
:10029000EC91E22BEC938FBFF6CF90915C0192959D
:1002A000990F990F907C8F77982B97B9369A36993A
:1002B000FECF84B195B108953FB7F894809158016D
:1002C00090915901A0915A01B0915B0122B708B6F3
:1002D00000FE05C02F3F19F00196A11DB11D3FBFC3
:1002E000BA2FA92F982F8827BC01CD01620F711D4D
:1002F000811D911D43E0660F771F881F991F4A9546
:10030000D1F70895CF92DF92EF92FF92CF93DF93D0
:100310006B017C01D1DFEB01CFDF6C1B7D0B683EF5
:100320007340A0F0C114D104E104F10439F4DF9169
:10033000CF91FF90EF90DF90CF90089581E0C81AA1
:10034000D108E108F108C851DC4FE6CFC114D1044F
:10035000E104F10409F7EBCF8091330181111EC054
:1003600010922701109226018FEF8093280110929E
:10037000290110922A0110922B0110922C01109247
:100380002D0110922E0110922F0110923001109227
:1003900031011092320181E08093330184E291E0D7
:1003A0000895EF92FF920F931F93CF93DF93DC0199
:1003B0001F96ED90FC905097E114F10479F481E0E0
:1003C00090E013969C938E93129790E080E0DF91DB
:1003D000CF911F910F91FF90EF9008951D96ED9191
:1003E000FC911E971C968C911C97982F90950FB797
:1003F00051962C915197122F117020FD6095F89411
:100400002081112319F1282B2083E7012197F1F78F
:1004100028E0462F50E0308160FF1AC0382B30832F
:10042000E7012197F1F7BA0175956795215089F792
:10043000112381F08081892380830FBF1F968D91C6
:100440009C910197F1F781E090E0C1CF2923DCCFA7
:100450003923E5CF9081892BEFCF089590E080E09C
:100460000895FB0101900020E9F73197AF01461B89
:10047000570BDC01ED91FC910280F381E02D099492
:100480008F929F92AF92BF92CF92DF92EF92FF92A4
:100490000F931F93CF93DF93CDB7DEB7A1970FB61E
:1004A000F894DEBF0FBECDBF6C01142FE52FCB013A
:1004B000022F19A2223008F40AE07E0121E2E20EA6
:1004C000F11C802E912CB12CA12C612F7E2FA50127
:1004D000940102D6802F622FEAD5181B1A300CF532
:1004E000105DF70112937F01122FE32FCA01232B16
:1004F000242B252B51F7B701C601B3DFA1960FB608
:10050000F894DEBF0FBECDBFDF91CF911F910F9149
:10051000FF90EF90DF90CF90BF90AF909F908F9023
:100520000895195CDECFEF92FF920F931F93CF9344
:10053000DF93EC0196DF8C01E881F9810190F08175
:10054000E02D6DE0CE0109957C01E881F9810190F3
:10055000F081E02D6AE0CE0109950E0D1F1D800F80
:10056000911FDF91CF911F910F91FF90EF90089510
:1005700078CF4F925F926F927F928F929F92AF92BD
:10058000BF92CF92DF92EF92FF920F931F93CF9380
:10059000DF9300D000D0CDB7DEB780913F0191E06E
:1005A000980F90933F01837009F045C260E770E0B7
:1005B0008DE591E0DDDF40918F01509190016091D8
:1005C000910170919201AB01662777272AE08DE5B2
:1005D00091E056DF69E770E08DE591E0C9DF409179
:1005E0008F01509190016091910170919201662765
:1005F00077272AE08DE591E043DF69E071E08DE542
:1006000091E091DFC0907701D0907801E09079017E
:10061000F0907A01D701C60181729927AA27BB27DA
:100620008197A105B10509F09DC080917B01909152
:100630007C01A0917D01B0917E0189839A83AB8377
:10064000BC8380909F019090A001A090A101B090E8
:10065000A201250166247724AA24BB2463E870E064
:100660008DE591E085DF2AE0B301A2018DE591E0FF
:1006700007DF6BE870E08DE591E07ADF2AE0B501F5
:10068000A4018DE591E0FCDE69E071E08DE591E08B
:100690004ADF89819A81AB81BC81892B8A2B8B2B84
:1006A00059F1411451046104710481F080918F016A
:1006B00090919001A0919101B0919201CD01AA2752
:1006C000BB2784159505A605B705B0F081149104E4
:1006D000A104B10409F444C180918F01909190016B
:1006E000A0919101B0919201AA27BB278815990585
:1006F000AA05BB0508F034C164E970E08DE591E01E
:1007000012DF9FE8C9226894C1F880918701909117
:100710008801A0918901B0918A0180937F01909313
:100720008001A0938101B093820180919701909103
:100730009801A0919901B0919A01AC01BD014427A3
:1007400055270196A11DB11DAA27BB27842B952BE8
:10075000A62BB72B8093970190939801A0939901B2
:10076000B0939A01C3FE77C0C5FC75C080917F012C
:1007700090918001A0918101B09182010097A10523
:10078000B10509F04DC180909B0190909C01A09013
:100790009D01B0909E01250166247724AA24BB24E4
:1007A00065EA70E08DE591E0E3DE2AE0B301A201A5
:1007B0008DE591E065DE6CEA70E08DE591E0D8DED4
:1007C0002AE0B501A4018DE591E05ADE69E071E00F
:1007D0008DE591E0A8DE411451046104710409F033
:1007E000D9C081149104A104B10409F010C164EBD3
:1007F00070E08DE591E097DE9DEBC922A0E3CA2A67
:100800008091830190918401A0918501B09186012E
:1008100080937B0190937C01A0937D01B0937E0136
:100820008091970190919801A0919901B0919A01BE
:10083000AC01BD0166277727882799271196842B5D
:10084000952BA62BB72B8093970190939801A0939B
:100850009901B0939A01C0927701D0927801E09209
:100860007901F0927A01E5E0F694E794D794C79481
:10087000EA95D1F7E1E0CE266C2D617083E0A1DC32
:100880008091A7019091A801009709F485C160E0CB
:1008900071E06EDE77E7A72E71E0B72E198263E074
:1008A00071E08091A7019091A80162DED5014D9081
:1008B0005D906D907D905D0108E110E08091A70151
:1008C0009091A8010097D9F073016201002E04C035
:1008D000F694E794D794C7940A94D2F7BFE0BC1576
:1008E00018F066E071E044DEB701A60155276627DF
:1008F000772720E18091A7019091A801C1DD0850E0
:100900001109083FEFEF1E07C9F68091A7019091EA
:10091000A801F981FB3019F068E071E029DE298136
:100920002F5F29832C3009F0BACF6BE071E0809102
:10093000A7019091A8010F900F900F900F90DF9159
:10094000CF911F910F91FF90EF90DF90CF90BF90CC
:10095000AF909F908F907F906F905F904F90E3CD7E
:1009600089819A81AB81BC810A97A105B10510F4F8
:100970006894C6F889819A81AB81BC810197A109ED
:10098000B10980937B0190937C01A0937D01B0938A
:100990007E01E8CE80918F0190919001A09191010C
:1009A000B0919201AD016627772781149104A104CB
:1009B000B10469F0441555056605770570F0AA275E
:1009C000BB2788159905AA05BB0538F010CF44153B
:1009D00055056605770508F00ACF64EC70E08DE5F3
:1009E00091E0A1DDBFE8CB226894C1F88091870136
:1009F00090918801A0918901B0918A0180937F0133
:100A000090938001A0938101B093820124CF8091C3
:100A10008F0190919001A0919101B0919201CFCF5F
:100A20008A309105A105B10510F46894C6F80197C4
:100A3000A109B109E3CF8091400166E041D3933031
:100A400009F45AC098F5913009F43FC0923009F486
:100A500047C082E287B93F9A3E9862E070E080E04A
:100A600090E050DC86B1877D86B9379A369A62E08D
:100A700070E080E090E046DC3699FECF84B125B18D
:100A8000322F282F890130E020E081E090E065E0FE
:100A900070E0E0914101F0914201892B09F059C0C9
:100AA000C12CD12CEE24EA94FE2C5BC0943079F159
:100AB000953079F682E080935C0182E8EEDB8C0170
:100AC00030E020E090E080E041C082E080935C0173
:100AD00083E8E3DB8C0130E020E090E080E0D7CFDA
:100AE00090935C0180E8D9DB8C0130E020E081E06C
:100AF00090E066E070E0CDCF82E080935C0181E819
:100B0000CCDB8C0130E020E090E080E0F2CF81E2AD
:100B100087B962E070E080E090E0F4DB369A3699C5
:100B2000FECF84B125B130E0322F2227032E000CF6
:100B3000440B550B282B60E070E381E190E0CCD2B0
:100B400089019A012227332781E090E067E070E075
:100B5000A0CF980111270027CC24CA94DC2CE12CCB
:100B6000F12C660F771F660F771FE60FF71F808146
:100B70009181A281B3818C219D21AE21BF21802B47
:100B8000912BA22BB32B80839183A283B38380917B
:100B900040018F5F809340010F900F900F900F9056
:100BA000DF91CF911F910F91FF90EF90DF90CF9049
:100BB000BF90AF909F908F907F906F905F904F907D
:100BC00008951F920F920FB60F9211242F933F9307
:100BD0008F939F93AF93BF9380916F01909170011A
:100BE000A0917101B09172013091570126E0230F5D
:100BF0002D3768F129E8230F0396A11DB11D20931D
:100C0000570180936F0190937001A0937101B0938D
:100C100072018091580190915901A0915A01B091AF
:100C20005B010196A11DB11D80935801909359015C
:100C3000A0935A01B0935B01BF91AF919F918F91A7
:100C40003F912F910F900FBE0F901F901895029615
:100C5000A11DB11DD4CF1F920F920FB60F92112478
:100C60001F932F933F934F935F936F937F938F9334
:100C70009F93AF93BF93CF93DF93EF93FF936CDB7F
:100C8000EC011FB180E48EB989859A85AB85BC855E
:100C90008B2F9927AA27BB278FB906DA892B41F515
:100CA0002C8127FD25C0211137C01D8789859A8594
:100CB000AB85BC85BA2FA92F982F882789879A875B
:100CC000AB87BC87243089F44D815E816F81788544
:100CD000E881F9818D85099569877A878B879C875B
:100CE0008D8580648E878FEF8C838C818F5F8C8362
:100CF000FF91EF91DF91CF91BF91AF919F918F9134
:100D00007F916F915F914F913F912F911F910F9024
:100D10000FBE0F901F9018958D819E81AF81B88571
:100D2000BA2FA92F982F8827812B8D839E83AF837D
:100D3000B887BCCF1F920F920FB60F9211242F933A
:100D40003F934F935F936F937F938F939F93AF9353
:100D5000BF93CF93DF93EF93FF93FEDAEC01A4D917
:100D6000892BE1F461E085E067DA1C826E9A80E409
:100D70008EB98E858FB9FF91EF91DF91CF91BF91A1
:100D8000AF919F918F917F916F915F914F913F9123
:100D90002F910F900FBE0F901F9018956E981EB850
:100DA0008FEF8C8360E085E047DAE5CF1F920F92EA
:100DB0000FB60F9211240F900FBE0F901F90189531
:100DC0001F920F920FB60F9211248F939F93AF93A0
:100DD000BF9380913B0190913C01A0913D01B09166
:100DE0003E010196A11DB11D80933B0190933C01F2
:100DF000A0933D01B0933E01BF91AF919F918F9120
:100E00000F900FBE0F901F90189583E080BF83BF97
:100E1000789499B7916099BF8FBD8EBD86B1887760
:100E2000866886B9379A14BE88E19FE00FB6F894B9
:100E3000A89581BD0FBE91BDA89561E083E0FCD966
:100E400061E081E0F9D9F894E7E7F1E087EA91E021
:100E500011921192119211928E179F07C9F70DE509
:100E600011E081E390E090936D0180936C016EE05E
:100E700071E0C80158DB1093A8010093A70186E038
:100E800092E0A4E6B0E78093A3019093A401A0931D
:100E9000A501B093A6018EE190E0A0E0B0E08093C0
:100EA0007B0190937C01A0937D01B0937E018093A0
:100EB0007F0190938001A0938101B0938201809380
:100EC000870190938801A0938901B0938A01809350
:100ED000830190938401A0938501B09386011092C1
:100EE0009701109298011092990110929A0189E24B
:100EF00090E0A0E0B0E08093770190937801A09318
:100F00007901B0937A0110929B0110929C0110928A
:100F10009D0110929E0110929F011092A0011092CB
:100F2000A1011092A20118DAEC018DE690E09983FC
:100F3000888360E085E080D960E084E07DD960E06E
:100F400086E07AD960E080E077D988E18DB981E0E8
:100F500080BD80E28BBF1B830A83789465E171E0DA
:100F6000C801E1DA2FB7F89480916F019091700178
:100F7000A0917101B09172012FBF80937301909382
:100F80007401A0937501B0937601C8E1DCE0809113
:100F9000770185FD1AC096B116B80FB6F894A895DA
:100FA000C1BD0FBED1BDA89581B5806481BD85B797
:100FB000877E806185BF85B7806285BF889585B74C
:100FC0008F7D85BF96B9D5DAE2CFA8952FB7F89473
:100FD00080916F0190917001A0917101B0917201A7
:100FE0002FBF409173015091740160917501709110
:100FF000760184179507A607B707A8F0BADA80919B
:10100000730190917401A0917501B09176018650A1
:101010009F4FAF4FBF4F8093730190937401A09384
:101020007501B093760169E170E080E090E06AD9E3
:10103000AECFCF93DF93CDE5D1E01B821A8288EE4D
:1010400093E0A0E0B0E08C839D83AE83BF8384E611
:1010500090E099838883188A1F86EEE6F1E060812C
:101060006E7F60836095617081E0ABD861E081E064
:10107000E3D8EEE4F0E0E491EC87E2E4F0E0E49120
:10108000F0E0EE0FFF1FE85DFF4F859194919E8782
:101090008D87A7E7B1E0D1961C921E92D097E0E42D
:1010A000F1E01082B283A183DF91CF9108950024F3
:1010B00080FD060E660F11F08695D1F7802D0895FC
:1010C000991B79E004C0991F961708F0961B881F9A
:1010D0007A95C9F780950895A1E21A2EAA1BBB1B29
:1010E000FD010DC0AA1FBB1FEE1FFF1FA217B307F4
:1010F000E407F50720F0A21BB30BE40BF50B661F0A
:10110000771F881F991F1A9469F7609570958095CD
:1011100090959B01AC01BD01CF010895EE0FFF1F1B
:0C1120000590F491E02D0994F894FFCFA5
:10112C0000000000D101B9002E022E022E022D0269
:10113C005653454E53413A2000205653454E534288
:10114C003A2000414F4646543A200020424F464632
:10115C00543A2000506F776572696E67206F66662F
:10116C002070692E00414F4E543A200020424F4EC1
:10117C00543A2000506F776572696E67206F6E204D
:10118C0070692E005653454E534120616E642F6F8B
:10119C0072205653454E5342206172652062656C35
:1011AC006F77207468726573686F6C642C2072653D
:1011BC007374617274696E672074696D65722E0048
:1011CC005B200030780030002C2000205D0068652A
:1011DC006C6C6F2100736574757020636F6D706C2F
:0411EC0065746500C1
:00000001FF
