:100000002DC051C050C04DC592C54DC04CC04BC055
:100010004AC049C048C08CC446C045C044C043C063
:10002000D1C400003A00370000003B003800000057
:100030000102030400000000000000000039003647
:100040000002020201010101010101010201020499
:1000500080402010080402010800BC0611241FBEC5
:10006000CFE5D2E0DEBFCDBF20E0AEE6B0E001C01C
:100070001D92A13EB207E1F710E0A0E6B0E0ECEF80
:10008000FDE002C005900D92AE36B107D9F710E041
:10009000CEE2D0E003C02197FE01A8D6CD32D10731
:1000A000D1F76AD5A9C639C5EDE4F0E08491E1E461
:1000B000F0E0E491EE2371F0F0E0EE0FFF1FE55C5D
:1000C000FF4FA591B491EC91E82381E090E021F4F9
:1000D00080E0089580E090E00895E82FEF70EB3025
:1000E00050F48295869586958370823051F18330E5
:1000F000C1F1813091F08E2F6CE04AD6E92FF0E00B
:10010000EE0FFF1FEE0FFF1FE155FF4F40815181A2
:1001100062817381CB01BA010895F0E0EE0FFF1FF9
:10012000EE0FFF1FE155FF4F80819181A281B381C6
:10013000482B592B6A2B7B2B40835183628373831B
:10014000E9CFF0E0EE0FFF1FEE0FFF1FE155FF4F6D
:1001500080819181A281B381482359236A237B2323
:10016000EBCFF0E0EE0FFF1FEE0FFF1FE155FF4F4B
:10017000E3CF90E0FC01E25DFF4F3491FC01E35BD3
:10018000FF4F2491FC01EF5BFF4FE491EE23B9F0A8
:10019000332329F03130A1F480B78F7780BFF0E0AE
:1001A000EE0FFF1FE85DFF4FA591B4918FB761116E
:1001B00017C0F894EC9120952E232C938FBF0895AF
:1001C000323019F480B78F7DE9CF333021F48FB509
:1001D0008F778FBDE4CF343011F78FB58F7DF9CF96
:1001E000F894EC912E2BE9CFCF93DF9390E0FC01B4
:1001F000E35BFF4F24918F5B9F4FFC018491882329
:10020000D1F090E0880F991FFC01EE5DFF4FA591A2
:10021000B491FC01E85DFF4FC591D49161110EC00E
:100220009FB7F8948C91E22FE0958E238C932881D0
:10023000E223E8839FBFDF91CF9108958FB7F894B1
:10024000EC91E22BEC938FBFF6CF9091A6009295A4
:10025000990F990F907C8F77982B97B9369A36998A
:10026000FECF84B195B108953FB7F8948091A20074
:100270009091A300A091A400B091A50022B708B668
:1002800000FE05C02F3F19F00196A11DB11D3FBF13
:10029000BA2FA92F982F8827BC01CD01620F711D9D
:1002A000811D911D43E0660F771F881F991F4A9596
:1002B000D1F70895CF92DF92EF92FF92CF93DF9321
:1002C0006B017C01D1DFEB01CFDF6C1B7D0B683E46
:1002D0007340A0F0C114D104E104F10439F4DF91BA
:1002E000CF91FF90EF90DF90CF90089581E0C81AF2
:1002F000D108E108F108C851DC4FE6CFC114D104A0
:10030000E104F10409F7EBCF80917D0081111EC05B
:1003100010927100109270008FEF80937200109213
:100320007300109274001092750010927600109273
:100330007700109278001092790010927A00109253
:100340007B0010927C0081E080937D008EE690E03F
:100350000895FB0101900020E9F73197AF01461B9A
:10036000570BDC01ED91FC910280F381E02D0994A3
:100370004F925F926F927F928F929F92AF92BF92B5
:10038000CF92DF92EF92FF920F931F93CF93DF9361
:10039000CDB7DEB7A1970FB6F894DEBF0FBECDBFC5
:1003A0008091890091E0980F90938900837009F003
:1003B0000DC2C090AF00D090B000E090B100F090BE
:1003C000B200D701C60181729927AA27BB2781975E
:1003D000A105B10509F075C08091B3009091B400FA
:1003E000A091B500B091B6000097A105B105C1F18B
:1003F0004091D7005091D8006091D9007091DA00F7
:100400002B0166247724411451046104710481F0A6
:100410008090C7009090C800A090C900B090CA001A
:100420004501AA24BB2484149504A604B704C0F093
:1004300066277727411551056105710509F46AC1E1
:100440008090C7009090C800A090C900B090CA00EA
:10045000AA24BB2484169506A606B70608F05AC13E
:100460002FE8C2226894C1F88091BF009091C0002B
:10047000A091C100B091C2008093B7009093B800E2
:10048000A093B900B093BA008091CF009091D000B2
:10049000A091D100B091D200AC01BD0144275527F5
:1004A0000196A11DB11DAA27BB27842B952BA62B36
:1004B000B72B8093CF009093D000A093D100B0933E
:1004C000D200C3FE56C0C5FC54C08091B7009091C5
:1004D000B800A091B900B091BA000097A105B1058C
:1004E00009F067C18091D3009091D400A091D5000C
:1004F000B091D6004D01AA24BB24AA27BB278114A2
:100500009104A104B10409F018C10097A105B10537
:1005100009F046C13DEBC32280E3C82A8091BB00AD
:100520009091BC00A091BD00B091BE008093B3003B
:100530009093B400A093B500B093B6008091CF0023
:100540009091D000A091D100B091D200AC01BD013A
:1005500066277727882799271196842B952BA62B1A
:10056000B72B8093CF009093D000A093D100B0938D
:10057000D200C092AF00D092B000E092B100F092F1
:10058000B200D701C60115E0B695A7959795879556
:100590001A95D1F7E1E08E27682F617083E0E9DDDD
:1005A0006C2D607481E0E5DD61E08091CF00909179
:1005B000D000A091D100B091D200892B8A2B8B2B37
:1005C00009F460E082E0D5DD8091DF009091E000E9
:1005D000009709F488C060E670E0BBDEAFEA8A2EBF
:1005E000A0E09A2E10E063E670E08091DF00909129
:1005F000E000AFDED4014D905D906D907D904D0197
:10060000F8E1AF2EB12C8091DF009091E0000097CF
:10061000D1F1730162010A2C04C0F694E794D794D7
:10062000C7940A94D2F7BFE0BC1518F066E670E0F4
:1006300090DE4091DF005091E000DD24EE24FF24A5
:1006400019A2BE016F5D7F4FD701C601E4E0B695E8
:10065000A79597958795EA95D1F7282F2295207F22
:10066000EC2DE21B2E2FEA300CF0AEC0205DFB011A
:100670002293BF016C017D01C114D104E104F10496
:1006800019F7CA0166DEF8E0AF1AB10828EFA21622
:100690002FEFB20609F0B7CF8091DF009091E00014
:1006A0001B3019F068E670E054DE1F5F1C3009F063
:1006B0009ACFE090DF00F090E0006BE670E0C701B9
:1006C00048DED701ED91FC910190F081E02D6DE0C5
:1006D000C7010995D701ED91FC910190F081E02DC2
:1006E0006AE0C7010995A1960FB6F894DEBF0FBE68
:1006F000CDBFDF91CF911F910F91FF90EF90DF90D1
:10070000CF90BF90AF909F908F907F906F905F90B1
:100710004F9008958E319105A105B10510F46894AC
:10072000C6F80197A109B1098093B3009093B40072
:10073000A093B500B093B600C4CE4091C7005091CD
:10074000C8006091C9007091CA002B01662477240B
:100750000097A105B10569F0481459046A047B04A7
:1007600070F066277727481759076A077B0738F024
:10077000D1CE481459046A047B0408F0CBCE809192
:10078000BF009091C000A091C100B091C2008093C1
:10079000B7009093B800A093B900B093BA00E9CE27
:1007A0004091C7005091C8006091C9007091CA0083
:1007B000D8CF8E319105A105B10510F46894C6F823
:1007C0000197A109B109E3CF295C51CF80918A003B
:1007D00066E0DED2933009F45AC098F5913009F4FE
:1007E0003FC0923009F447C082E287B93F9A3E98F1
:1007F00062E070E080E090E05DDD86B1877D86B9E3
:10080000379A369A62E070E080E090E053DD3699E6
:10081000FECF84B125B1322F282F890130E020E0AE
:1008200081E090E065E070E0E0918B00F0918C0059
:10083000892B09F059C0C12CD12CEE24EA94FE2C4E
:100840005BC0943079F1953079F682E08093A60010
:1008500082E8FBDC8C0130E020E090E080E041C0E9
:1008600082E08093A60083E8F0DC8C0130E020E099
:1008700090E080E0D7CF9093A60080E8E6DC8C0182
:1008800030E020E081E090E066E070E0CDCF82E0F3
:100890008093A60081E8D9DC8C0130E020E090E074
:1008A00080E0F2CF81E287B962E070E080E090E022
:1008B00001DD369A3699FECF84B125B130E0322F72
:1008C0002227032E000C440B550B282B60E070E30D
:1008D00081E190E069D289019A012227332781E0E2
:1008E00090E067E070E0A0CF980111270027CC24AA
:1008F000CA94DC2CE12CF12C660F771F660F771F52
:10090000E60FF71F80819181A281B3818C219D2107
:10091000AE21BF21802B912BA22BB32B80839183FF
:10092000A283B38380918A008F5F80938A00DBCE9D
:100930001F920F920FB60F9211242F933F938F9314
:100940009F93AF93BF938091A7009091A800A0912F
:10095000A900B091AA003091A10026E0230F2D3705
:1009600068F129E8230F0396A11DB11D2093A10072
:100970008093A7009093A800A093A900B093AA0029
:100980008091A2009091A300A091A400B091A50035
:100990000196A11DB11D8093A2009093A300A09386
:1009A000A400B093A500BF91AF919F918F913F910B
:1009B0002F910F900FBE0F901F9018950296A11DBA
:1009C000B11DD4CF1F920F920FB60F9211241F9317
:1009D0002F933F934F935F936F937F938F939F9347
:1009E000AF93BF93CF93DF93EF93FF938DDCEC0135
:1009F0001FB180E48EB989859A85AB85BC858B2F24
:100A00009927AA27BB278FB94FDB892B41F52C816A
:100A100027FD25C0211137C01D8789859A85AB85A3
:100A2000BC85BA2FA92F982F882789879A87AB87EB
:100A3000BC87243089F44D815E816F817885E8819F
:100A4000F9818D85099569877A878B879C878D8544
:100A500080648E878FEF8C838C818F5F8C83FF9176
:100A6000EF91DF91CF91BF91AF919F918F917F9146
:100A70006F915F914F913F912F911F910F900FBEFA
:100A80000F901F9018958D819E81AF81B885BA2FE8
:100A9000A92F982F8827812B8D839E83AF83B887BA
:100AA000BCCF1F920F920FB60F9211242F933F933A
:100AB0004F935F936F937F938F939F93AF93BF9366
:100AC000CF93DF93EF93FF931FDCEC01EDDA892BDB
:100AD000E1F461E085E088DB1C826E9A80E48EB9E7
:100AE0008E858FB9FF91EF91DF91CF91BF91AF913B
:100AF0009F918F917F916F915F914F913F912F9136
:100B00000F900FBE0F901F9018956E981EB88FEF24
:100B10008C8360E085E068DBE5CF1F920F920FB613
:100B20000F9211240F900FBE0F901F9018951F92D7
:100B30000F920FB60F9211248F939F93AF93BF9391
:100B40008091850090918600A0918700B0918800E7
:100B50000196A11DB11D8093850090938600A093FE
:100B60008700B0938800BF91AF919F918F910F90B4
:100B70000FBE0F901F90189583E080BF83BF7894BD
:100B800099B7916099BF8FBD8EBD86B18877866811
:100B900086B9379A14BE88E19FE00FB6F894A895FD
:100BA00081BD0FBE91BDA89561E083E01DDB61E0D2
:100BB00081E01ADB61E082E017DBF894EFEAF0E015
:100BC000119211921192119280E0EF3DF807C1F756
:100BD00086E092E0A4E6B0E78093DB009093DC002F
:100BE000A093DD00B093DE0084E893E0A0E0B0E0E5
:100BF0008093B3009093B400A093B500B093B60077
:100C00008093B7009093B800A093B900B093BA0056
:100C10008093BF009093C000A093C100B093C20026
:100C20008093BB009093BC00A093BD00B093BE0026
:100C30001092CF001092D0001092D1001092D200EA
:100C400089E290E0A0E0B0E08093AF009093B00024
:100C5000A093B100B093B2001092D3001092D400D0
:100C60001092D5001092D6001092D7001092D800A2
:100C70001092D9001092DA0047DB2DE630E0FC013B
:100C80003183208360E085E0AFDA60E084E0ACDAB5
:100C900060E086E0A9DA60E080E0A6DA88E18DB95C
:100CA00081E080BD80E28BBF78942FB7F89480916B
:100CB000A7009091A800A091A900B091AA002FBF11
:100CC0008093AB009093AC00A093AD00B093AE00C6
:100CD000C8E1DCE08091AF0085FD1AC096B116B87E
:100CE0000FB6F894A895C1BD0FBED1BDA89581B52A
:100CF000806481BD85B7877E806185BF85B780624E
:100D000085BF889585B78F7D85BF96B931DBE2CFEA
:100D1000A8952FB7F8948091A7009091A800A09172
:100D2000A900B091AA002FBF4091AB005091AC0038
:100D30006091AD007091AE0084179507A607B707C4
:100D4000A8F016DB8091AB009091AC00A091AD00B3
:100D5000B091AE0086509F4FAF4FBF4F8093AB0016
:100D60009093AC00A093AD00B093AE0069E170E049
:100D700080E090E09FDAAECFAFEAB0E0D1961C926F
:100D80001E92D097EAE8F0E01082B283A183089522
:100D9000991B79E004C0991F961708F0961B881FCD
:100DA0007A95C9F780950895A1E21A2EAA1BBB1B5C
:100DB000FD010DC0AA1FBB1FEE1FFF1FA217B30727
:100DC000E407F50720F0A21BB30BE40BF50B661F3D
:100DD000771F881F991F1A9469F760957095809501
:100DE00090959B01AC01BD01CF010895EE0FFF1F4F
:0C0DF0000590F491E02D0994F894FFCFD9
:0E0DFC005B200030780030002C2000205D00CD
:00000001FF
