:100000002DC051C050C03EC49BC04DC04CC04BC061
:100010004AC049C048C085C546C045C044C043C069
:10002000A3C400000102030400000000000000015E
:1000300002048040201008040201080202020101AB
:100040000101010101010200003900360000003BFE
:1000500000380000003A00370000E20311241FBE00
:10006000CFE5D2E0DEBFCDBF10E0A0E6B0E0E2EB2E
:10007000FEE002C005900D92AE36B107D9F720E040
:10008000AEE6B0E001C01D92A93DB207E1F710E075
:10009000CEE2D0E003C02197FE0103D7CD32D107D5
:1000A000D1F726D504C788C2E82FEF70E93050F4A5
:1000B0008295869586958370823021F1833091F107
:1000C000813081F08E2F6AE0BED6E92FF0E0EE0F8E
:1000D000FF1FEE0FFF1FE657FF4F408151816281E6
:1000E00073812BC0F0E0EE0FFF1FEE0FFF1FE657EE
:1000F000FF4F80819181A281B381482B592B6A2BBC
:100100007B2B17C0F0E0EE0FFF1FEE0FFF1FE6572F
:10011000FF4F80819181A281B381482359236A23B3
:100120007B2307C0F0E0EE0FFF1FEE0FFF1FE65727
:10013000FF4F4083518362837383CB01BA010895DB
:100140001F920F920FB60F9211248F939F93AF932C
:10015000BF938091B4009091B500A091B600B0918A
:10016000B7000196A11DB11D8093B4009093B50016
:10017000A093B600B093B700BF91AF919F918F91BC
:100180000F900FBE0F901F9018954F925F926F9235
:100190007F928F929F92AF92BF92CF92DF92EF9217
:1001A000FF920F931F93CF93C0908A00D0908B0043
:1001B000E0908C00F0908D00D701C60181729927E4
:1001C000AA27BB278197A105B10509F050C08091EE
:1001D0008E0090918F00A0919000B09191000097B7
:1001E000A105B10591F52FE8C2226894C1F880916C
:1001F0009A0090919B00A0919C00B0919D008093EB
:10020000920090939300A0939400B09395008091F6
:10021000AA009091AB00A091AC00B091AD00AC01F0
:10022000BD01442755270196A11DB11DAA27BB2753
:10023000842B952BA62BB72B8093AA009093AB0011
:10024000A093AC00B093AD0012C08E319105A10512
:10025000B10510F46894C6F80197A109B10980931B
:100260008E0090938F00A0939000B0939100C3FEF6
:1002700051C0C5FC4FC08091920090919300A09115
:100280009400B09195000097A105B10589F58DEB1B
:10029000C822E0E3CE2A8091960090919700A09129
:1002A0009800B091990080938E0090938F00A09356
:1002B0009000B09391008091AA009091AB00A09122
:1002C000AC00B091AD00AC01BD0144275527AA2771
:1002D000BB276F5F7F4F842B952BA62BB72B80936B
:1002E000AA009093AB00A093AC00B093AD0012C0F5
:1002F0008E319105A105B10510F46894C6F80197F7
:10030000A109B1098093920090939300A093940067
:10031000B0939500C0928A00D0928B00E0928C003E
:10032000F0928D00D701C60125E0B695A795979567
:1003300087952A95D1F7F1E08F27682F617083E0C8
:100340001BD56C2D607481E017D561E08091AA0007
:100350009091AB00A091AC00B091AD00892B8A2B9D
:100360008B2B09F460E082E007D58091B200909178
:10037000B300009709F45DC060E670E028D38AE816
:10038000E82E80E0F82EC0E063E670E08091B200D5
:100390009091B3001CD3F7014190519061907190FE
:1003A0007F0108E110E053014201002E04C0B69421
:1003B000A794979487940A94D2F7282D8091B2003D
:1003C0009091B300009769F0203118F466E670E070
:1003D000FED240E150E0682D8091B2009091B300D0
:1003E00081D308501109083FFFEF1F07E1F6C9301C
:1003F00039F068E670E08091B2009091B300E7D2E6
:10040000CF5FCA3009F66BE670E08091B200909140
:10041000B300CF911F910F91FF90EF90DF90CF909D
:10042000BF90AF909F908F907F906F905F904F9014
:10043000E8C2CF911F910F91FF90EF90DF90CF9086
:10044000BF90AF909F908F907F906F905F904F90F4
:10045000089514BE9FE088E10FB6F894A89581BD79
:100460000FBE91BDA89561E083E048D461E081E0D2
:1004700045D461E082E042D4F894EAE8F0E01192D9
:1004800011921192119280E0E23BF807C1F785E0EA
:1004900092E0A4E6B0E78093AE009093AF00A09303
:1004A000B000B093B10084E893E0A0E0B0E08093A6
:1004B0008E0090938F00A0939000B0939100809352
:1004C000920090939300A0939400B0939500809332
:1004D0009A0090939B00A0939C00B0939D00809302
:1004E000960090939700A0939800B0939900109273
:1004F000AA001092AB001092AC001092AD0089E2FD
:1005000090E0A0E0B0E080938A0090938B00A093ED
:100510008C00B0938D008091B80081111EC01092A4
:10052000C3001092C2008FEF8093C4001092C500E8
:100530001092C6001092C7001092C8001092C90015
:100540001092CA001092CB001092CC001092CD00F5
:100550001092CE0081E08093B80084E590E0909303
:10056000C1008093C00080EC90E05DD1789423D3EB
:1005700060936F007093700080937100909372008D
:10058000089596B116B82CE088E10FB6F894A895B6
:1005900081BD0FBE21BDA89581B5806481BD85B7A1
:1005A000877E806185BF85B7806285BF889585B766
:1005B0008F7D85BF96B908951F920F920FB60F9247
:1005C00011240F900FBE0F901F901895CF92DF92BD
:1005D000EF92FF920F931F93CF93DF93EC018881EB
:1005E00066E031D4933009F441C028F4913041F1F0
:1005F000923091F106C0943009F444C0953009F46A
:1006000063C082E287B93F9A3E9862E070E080E082
:1006100090E004D386B1877D86B9379A369A62E036
:1006200070E080E090E0FAD23699FECF24B185B137
:1006300030E0382B890120E030E081E090E009C013
:1006400082E026D383E827D38C0120E030E080E0ED
:1006500090E065E070E043C082E01AD380E81BD3ED
:100660008C0120E030E081E090E009C082E010D30E
:1006700081E811D38C0120E030E080E090E066E07A
:1006800070E02DC081E287B962E070E080E090E028
:10069000C5D2369A3699FECF84B125B130E0322FDB
:1006A0002227A901330F660B770B9A01AB01282B88
:1006B00060E070E381E190E0D2D389019A012227C2
:1006C000332781E090E009C082E0E2D282E8E3D201
:1006D0008C0120E030E080E090E067E070E0E981AC
:1006E000FA81892B41F09801112700278FEF9FEFA6
:1006F000A0E0B0E004C080E090E0AFEFBFEF660F95
:10070000771F660F771FE60FF71FC080D180E2804A
:10071000F3808C219D21AE21BF21802B912BA22B18
:10072000B32B80839183A283B38388818F5F888377
:10073000DF91CF911F910F91FF90EF90DF90CF90BD
:10074000089580916E0091E0980F90936E008370F1
:1007500009F41BCD83E790E039CF0F931F9380916D
:100760008A0085FD04C00DDF1F910F91EACFA89587
:1007700022D200916F001091700020917100309191
:1007800072006017710782079307A8F0DADF809183
:100790006F0090917000A0917100B091720086502E
:1007A0009F4FAF4FBF4F80936F0090937000A09307
:1007B0007100B093720069E170E080E090E01F91F9
:1007C0000F912CC2AAE8B0E099961C921E929897BD
:1007D000E3E7F0E01082B283A18308958091B8002E
:1007E00081111EC01092C3001092C2008FEF80933F
:1007F000C4001092C5001092C6001092C70010925B
:10080000C8001092C9001092CA001092CB0010923A
:10081000CC001092CD001092CE0081E08093B80001
:1008200080EC90E0089560E085E068D260E084E0CC
:1008300065D260E086E062D260E080E05FD288E16D
:100840008DB981E080BD80E28BBF0895CF93DF93A7
:10085000EC0180E0C5D2892B61F461E085E04ED2E5
:100860001C826E9A80E48EB98E858FB9DF91CF910C
:1008700008956E981EB88FEF8C8360E085E0DF915D
:10088000CF913CC21F920F920FB60F9211242F935B
:100890003F934F935F936F937F938F939F93AF9308
:1008A000BF93EF93FF939ADFD1DFFF91EF91BF9159
:1008B000AF919F918F917F916F915F914F913F91F8
:1008C0002F910F900FBE0F901F9018951F93CF93ED
:1008D000DF93EC011FB180E48EB989859A85AB85E1
:1008E000BC858B2F9927AA27BB278FB980E078D2A8
:1008F000892BB1F52C8127FD33C0211102C01D8742
:100900000DC08D819E81AF81B885BA2FA92F982FF8
:100910008827812B8D839E83AF83B88789859A85AD
:10092000AB85BC85BA2FA92F982F882789879A87EE
:10093000AB87BC87243089F44D815E816F817885D7
:10094000E881F9818D85099569877A878B879C87EE
:100950008D8580648E878FEF8C838C818F5F8C83F5
:10096000DF91CF911F9108951F920F920FB60F92B2
:1009700011242F933F934F935F936F937F938F93A4
:100980009F93AF93BF93EF93FF9328DF9FDFFF9178
:10099000EF91BF91AF919F918F917F916F915F91F7
:1009A0004F913F912F910F900FBE0F901F90189570
:1009B000FB0101900020E9F73197AF01461B570B6F
:1009C000DC01ED91FC910280F381E02D0994F0CFE0
:1009D000DC01ED91FC910190F081E02D09940F93E1
:1009E0001F93CF93DF93EC016DE0F2DF8C016AE09F
:1009F000CE01EEDF800F911FDF91CF911F910F91FC
:100A000008950F931F93CF93DF93EC01D1DF8C01F7
:100A1000CE01E5DF800F911FDF91CF911F910F91E4
:100A200008958F929F92AF92BF92CF92DF92EF92F2
:100A3000FF920F931F93CF93DF93CDB7DEB7A197AC
:100A40000FB6F894DEBF0FBECDBF6C01142FE52F9B
:100A5000CB01022F19A2223008F40AE07E0121E224
:100A6000E20EF11C802E912CA12CB12C612F7E2F37
:100A7000A5019401F4D1802F622FDCD1181B81E0F5
:100A8000E81AF1081A3014F4105D01C0195CF7017E
:100A90001083122FE32FCA01232B242B252B31F790
:100AA000B701C60185DFA1960FB6F894DEBF0FBE71
:100AB000CDBFDF91CF911F910F91FF90EF90DF900D
:100AC000CF90BF90AF909F908F90089521153105E2
:100AD00041F4DC01ED91FC910190F081E02D642F57
:100AE00009949FCF9A01462F50E060E070E0EECF6E
:100AF00081B781BFB8D0ADDC30DEFECF8EB5887F48
:100B00008EBD8FB581608FBD8FB58D7F8FBD8EB54A
:100B1000877F8EBD8EB58F7E8EBD8EB583608EBD78
:100B200008951F920F920FB60F9211242F933F93A7
:100B30008F939F93AF93BF938091D0009091D100FA
:100B4000A091D200B091D3003091CF0026E0230FC6
:100B50002D3730F029E8230F0396A11DB11D03C0E6
:100B60000296A11DB11D2093CF008093D0009093D9
:100B7000D100A093D200B093D3008091D400909183
:100B8000D500A091D600B091D7000196A11DB11D4E
:100B90008093D4009093D500A093D600B093D70053
:100BA000BF91AF919F918F913F912F910F900FBE69
:100BB0000F901F9018952FB7F8946091D000709106
:100BC000D1008091D2009091D3002FBF08953FB7FC
:100BD000F8948091D4009091D500A091D600B09166
:100BE000D70022B708B600FE05C02F3F19F00196C6
:100BF000A11DB11D3FBFBA2FA92F982F8827820FA3
:100C0000911DA11DB11DBC01CD0143E0660F771FF1
:100C1000881F991F4A95D1F708950895CF92DF92C2
:100C2000EF92FF92CF93DF936B017C01D0DFEB015A
:100C3000C114D104E104F10479F0EFDFC8DF6C1BCB
:100C40007D0B683E7340A0F381E0C81AD108E1082B
:100C5000F108C851DC4FF2CFDF91CF91FF90EF90B8
:100C6000DF90CF90089580B7826080BF80B78160A9
:100C700080BF83B7887F836083BF789489B78160A2
:100C800089BF3CDF86B18877866886B9379A089530
:100C90008093D80008959091D8009295990F990F5C
:100CA000907C8F73892B87B9369A3699FECF84B1A1
:100CB00025B190E0922B0895813031F480B78F7781
:100CC00080BF80B78F7B07C0823039F480B78F7DBB
:100CD00080BF80B78F7E80BF0895833031F48FB599
:100CE0008F778FBD8FB58F7B07C0843031F48FB580
:100CF0008F7D8FBD8FB58F7E8FBD0895CF93DF938E
:100D000087FD8FEF90E0FC01E15DFF4F2491FC0136
:100D1000E55CFF4F8491882361F190E0880F991F73
:100D2000FC01ED5AFF4FC591D491FC01E35BFF4FED
:100D3000A591B491611109C09FB7F894888120955D
:100D400082238883EC912E230BC0623061F49FB71D
:100D5000F8948881322F309583238883EC912E2B51
:100D60002C939FBF06C08FB7F894E8812E2B288361
:100D70008FBFDF91CF9108951F93CF93DF93162FED
:100D800087FD8FEF282F30E0F901EE5DFF4F849152
:100D9000F901E15DFF4FD491F901E55CFF4FC4918A
:100DA000CC23D1F0811188DFEC2FF0E0EE0FFF1F94
:100DB000E35BFF4FA591B491111108C09FB7F89460
:100DC0008C91D095D823DC939FBF06C08FB7F89441
:100DD000EC91DE2BDC938FBFDF91CF911F910895B3
:100DE000CF93DF9387FD8FEF282F30E0F901EE5D81
:100DF000FF4F8491F901E15DFF4FD491F901E55C6A
:100E0000FF4FC491CC2389F0811156DFEC2FF0E025
:100E1000EE0FFF1FE95BFF4FA591B491EC91ED231D
:100E200081E090E021F480E002C080E090E0DF917A
:100E3000CF910895002480FD060E660F11F086956F
:100E4000D1F7802D0895991B79E004C0991F96175A
:100E500008F0961B881F7A95C9F780950895A1E23E
:100E60001A2EAA1BBB1BFD010DC0AA1FBB1FEE1F24
:100E7000FF1FA217B307E407F50720F0A21BB30B6F
:100E8000E40BF50B661F771F881F991F1A9469F7EB
:100E900060957095809590959B01AC01BD01CF0147
:100EA0000895EE0FFF1F0590F491E02D0994F8943A
:020EB000FFCF72
:0E0EB2005B200030780030002C2000205D0016
:00000001FF
