:100000002DC051C050C0B7C7FCC74DC04CC04BC07D
:100010004AC049C048C0F6C646C045C044C043C0F7
:100020003BC700003A00370000003B0038000000EA
:100030000102030400000000000000000039003647
:100040000002020201010101010101010201020499
:1000500080402010080402010800C40911241FBEBA
:10006000CFE5D2E0DEBFCDBF21E0A2EEB0E001C01F
:100070001D92A337B207E1F710E0A0E6B0E0E2E896
:10008000F4E102C005900D92A23EB107D9F710E04D
:10009000CEE2D0E003C02197FE01EBD9CD32D107EB
:1000A000D1F7D4D7ECC9A3C7EDE4F0E08491E1E443
:1000B000F0E0E491EE2371F0F0E0EE0FFF1FE55C5D
:1000C000FF4FA591B491EC91E82381E090E021F4F9
:1000D00080E0089580E090E00895CF92DF92EF9263
:1000E000FF92E82F6A017B01482F4F70842F6EE04A
:1000F00092D9292F30E0220F331F220F331F4930AE
:1001000051F0E295E695E695E370E23011F1E330C7
:1001100061F1E13071F0275C3E4FF901C080D18080
:10012000E280F380C701B601FF90EF90DF90CF909F
:100130000895F901E75CFE4F80819181A281B3812E
:10014000C82AD92AEA2AFB2AC082D182E282F38213
:10015000E9CFF901E75CFE4F80819181A281B381F3
:10016000C822D922EA22FB22EFCF275C3E4FF901B9
:10017000EBCF0F931F93CF93DF93EC01E881F981CD
:100180000190F081E02D6DE009958C01E881F98105
:100190000190F081E02D6AE0CE010995800F911F5A
:1001A000DF91CF911F910F910895CF92DF92EF923F
:1001B000FF920F931F93CF93DF936C01EB017B01B1
:1001C000E40EF51E10E000E0CE15DF0561F0699148
:1001D000D601ED91FC910190F081E02DC6010995C9
:1001E000080F191FF1CFC801DF91CF911F910F9117
:1001F000FF90EF90DF90CF90089590E0FC01E25DDA
:10020000FF4F3491FC01E35BFF4F2491FC01EF5B56
:10021000FF4FE491EE23B9F0332329F03130A1F4FC
:1002200080B78F7780BFF0E0EE0FFF1FE85DFF4FD4
:10023000A591B4918FB7611117C0F894EC912095F6
:100240002E232C938FBF0895323019F480B78F7D01
:10025000E9CF333021F48FB58F778FBDE4CF3430C1
:1002600011F78FB58F7DF9CFF894EC912E2BE9CF54
:10027000CF93DF9390E0FC01E35BFF4F24918F5B12
:100280009F4FFC0184918823D1F090E0880F991F43
:10029000FC01EE5DFF4FA591B491FC01E85DFF4FBD
:1002A000C591D49161110EC09FB7F8948C91E22F43
:1002B000E0958E238C932881E223E8839FBFDF9112
:1002C000CF9108958FB7F894EC91E22BEC938FBF08
:1002D000F6CF909103019295990F990F907C8F77AB
:1002E000982B97B9369A3699FECF84B195B1089577
:1002F0003FB7F8948091FF0090910001A091010117
:10030000B091020122B708B600FE05C02F3F19F0D8
:100310000196A11DB11D3FBFBA2FA92F982F882785
:10032000BC01CD01620F711D811D911D43E0660F5F
:10033000771F881F991F4A95D1F70895CF92DF92B2
:10034000EF92FF92CF93DF936B017C01D1DFEB0142
:10035000CFDF6C1B7D0B683E7340A0F0C114D1044D
:10036000E104F10439F4DF91CF91FF90EF90DF9039
:10037000CF90089581E0C81AD108E108F108C8516A
:10038000DC4FE6CFC114D104E104F10409F7EBCF4F
:1003900081E287B962E070E080E090E0CFDF369ADA
:1003A0003699FECF84B125B130E0322F2227032EBB
:1003B000000C440B550B282B60E070E381E190E0CA
:1003C00036D8C901089582E287B93F9A3E9862E023
:1003D00070E080E090E0B2DF86B1877D86B9379A21
:1003E000369A62E070E080E090E0A8DF3699FECFB8
:1003F00084B195B108958091F10081111EC01092D1
:10040000E5001092E4008FEF8093E6001092E70081
:100410001092E8001092E9001092EA001092EB00AE
:100420001092EC001092ED001092EE001092EF008E
:100430001092F00081E08093F10082EE90E0089548
:10044000EF92FF920F931F93CF93DF93DC011F96E0
:10045000ED90FC905097E114F10479F481E090E084
:1004600013969C938E93129790E080E0DF91CF914A
:100470001F910F91FF90EF9008951D96ED91FC91C3
:100480001E971C968C911C97982F90950FB751969C
:100490002C915197122F117020FD6095F8942081B6
:1004A000112319F1282B2083E7012197F1F728E088
:1004B000462F50E0308160FF1AC0382B3083E701AF
:1004C0002197F1F7BA0175956795215089F71123A6
:1004D00081F08081892380830FBF1F968D919C912D
:1004E0000197F1F781E090E0C1CF2923DCCF3923D8
:1004F000E5CF9081892BEFCF089590E080E00895BB
:10050000FB0101900020E9F73197AF01461B570B23
:10051000DC01ED91FC910280F381E02D09948F9232
:100520009F92AF92BF92CF92DF92EF92FF920F9382
:100530001F93CF93DF93CDB7DEB7A1970FB6F89493
:10054000DEBF0FBECDBF6C01142FE52FCB01022FF4
:1005500019A2223008F40AE07E0121E2E20EF11C29
:10056000802E912CB12CA12C612F7E2FA5019401FE
:100570005ED7802F622F46D7181B1A300CF5105DFE
:10058000F70112937F01122FE32FCA01232B242B93
:10059000252B51F7B701C601B3DFA1960FB6F8942A
:1005A000DEBF0FBECDBFDF91CF911F910F91FF90A6
:1005B000EF90DF90CF90BF90AF909F908F90089575
:1005C000195CDECF0F931F93CF93DF93EC0198DF7D
:1005D0008C01CE01CEDD800F911FDF91CF911F9155
:1005E0000F9108958DCF4F925F926F927F928F926D
:1005F0009F92AF92BF92CF92DF92EF92FF920F93B2
:100600001F93CF93DF93CDB7DEB72E970FB6F89435
:10061000DEBF0FBECDBF8091FD0091E0980F90939B
:10062000FD00837009F07AC2C0903901D0903A0180
:10063000E0903B01F0903C01D701C60135E0B69552
:10064000A795979587953A95D1F7082F01700E8752
:10065000D6FEF9C114BE13E8D122D701C6018172BA
:100660009927AA27BB278197A105B10509F0EAC000
:1006700080903D0190903E01A0903F01B0904001DC
:100680008091650190916601A0916701B091680128
:100690002D01662477248C019D01222733270983AD
:1006A0001A832B833C838091510190915201A09138
:1006B0005301B09154019D01442755272D833E835A
:1006C0004F8358878C019D012227332709871A877A
:1006D0002B873C87411451046104710451F011E0EF
:1006E0002D813E814F8158852415350546055705D6
:1006F00008F010E089819A81AB81BC810097A10547
:10070000B10559F001E00D8729853A854B855C8557
:10071000281739074A075B0708F01D8681149104E2
:10072000A104B10431F0111104C00D85002309F4B6
:10073000AAC160E770E08FE191E044DF20E1B501FC
:10074000A4018FE191E0EBDE69E970E08FE191E0D7
:1007500049DF20E1B301A2018FE191E0E0DE69E928
:1007600070E08FE191E03EDF20E149815A816B81A9
:100770007C818FE191E0D3DE69E970E08FE191E067
:1007800031DF20E14D815E816F8178858FE191E0DD
:10079000C6DE69E970E08FE191E024DF20E1498560
:1007A0005A856B857C858FE191E0B9DE69E970E05F
:1007B0008FE191E017DF8FE191E0DBDC6CE970E025
:1007C0008FE191E0FFDEE894C7F8D0F8112309F437
:1007D00050C11D85112309F449C122E8C22A689439
:1007E000D0F81FE8C1228091490190914A01A0915F
:1007F0004B01B0914C018093410190934201A09331
:100800004301B09344018091590190915A01A09104
:100810005B01B0915C01AC01BD0144275527AA27BB
:10082000BB270196A11DB11DAA27BB27842B952BA1
:10083000A62BB72B8093590190935A01A0935B018B
:10084000B0935C01C3FE6CC0C5FC6AC080914101DD
:1008500090914201A0914301B09144010097A105FC
:10086000B10509F042C18091610190916201A091AE
:100870006301B09164018D0122273327AA27BB278A
:100880004091510150915201609153017091540176
:100890004A015B01AA24BB2401151105210531057C
:1008A00009F007C10097A105B10531F08816990636
:1008B000AA06BB0608F406C16DEA70E08FE191E07C
:1008C00081DE4DEBC42250E3C52A80914501909111
:1008D0004601A0914701B091480180933D0190935A
:1008E0003E01A0933F01B093400180915901909146
:1008F0005A01A0915B01B0915C01AC01BD0166277A
:100900007727882799271196842B952BA62BB72B11
:100910008093590190935A01A0935B01B0935C01BD
:10092000C0923901D0923A01E0923B01F0923C0131
:1009300081E0B701A6014072552766277727C5FEDB
:1009400080E00E85081769F0452B462B472B09F4EC
:10095000E3C0D1FEDDC08FEFDF98DF9A8150E1F771
:10096000DF988091710190917201009709F433C270
:100970006DEB70E037DEA9E3AA2EA1E0BA2E198252
:1009800060EC70E080917101909172012BDED501D5
:100990004D905D906D907D905D0108E110E080913B
:1009A0007101909172010097D9F073016201002EDC
:1009B00004C0F694E794D794C7940A94D2F7BFE0A2
:1009C000BC1518F063EC70E00DDEB701A6015527E9
:1009D0006627772720E180917101909172019FDD58
:1009E00008501109083FEFEF1E07C9F68091710109
:1009F0009091720109810D3019F065EC70E0F2DD23
:100A000019811F5F19831E3009F0BACF68EC70E0BE
:100A100080917101909172012E960FB6F894DEBF0D
:100A20000FBECDBFDF91CF911F910F91FF90EF903F
:100A3000DF90CF90BF90AF909F908F907F906F90FE
:100A40005F904F90BFCD84B790E0982F8827990F83
:100A5000990F88279C73092E000CAA0BBB0B23EC63
:100A6000D222C82AD92AEA2AFB2AF7CD32E8C32A99
:100A7000B8CE0D85011103C06894C1F8B2CE689458
:100A8000C1F8D0F8AECE2EE182169104A104B104D3
:100A900010F46894C6F831E0831A9108A108B108EF
:100AA00080923D0190923E01A0923F01B0924001A0
:100AB000C9CEAB0166277727401751076207730736
:100AC00008F0F0CE8091490190914A01A0914B012C
:100AD000B0914C018093410190934201A093430156
:100AE000B0934401E894C6F81BCF8E319105A1055F
:100AF000B10510F46894C6F80197A109B109809373
:100B0000410190934201A0934301B093440108CF67
:100B100060E083E072DB25CF61E0FBCF80910401D0
:100B200066E079D4933009F4F3C008F048C09130FE
:100B300009F481C0923009F4B4C045DC40911B0136
:100B400050911C0160911D0170911E018A019B0151
:100B5000E5E03695279517950795EA95D1F7401B5F
:100B6000510B620B730B8A019B01080F191F211D8A
:100B7000311DD901C80180931B0190931C01A093E2
:100B80001D01B0931E01F5E0B695A7959795879541
:100B9000FA95D1F7AA27BB2741E050E025E030E0E5
:100BA000E0910501F0910601AA27BB27452B09F02A
:100BB000EFC0C12CD12CEE24EA94FE2CF1C094306D
:100BC00009F4B2C0953009F0B8CF82E080930301F8
:100BD00082E87FDB40910B0150910C0160910D0187
:100BE00070910E018A019B01E5E0369527951795D6
:100BF0000795EA95D1F7401B510B620B730B8A01E5
:100C00009B01080F191F211D311DD901C8018093B7
:100C10000B0190930C01A0930D01B0930E01F5E030
:100C2000B695A79597958795FA95D1F7AA27BB27EB
:100C300050E040E0AAC082E08093030183E849DBF2
:100C400040910F01509110016091110170911201BA
:100C50008A019B01A5E03695279517950795AA95DA
:100C6000D1F7401B510B620B730B8A019B01080FDC
:100C7000191F211D311DD901C80180930F019093C7
:100C80001001A0931101B093120115E0B695A7953C
:100C9000979587951A95D1F7AA27BB2750E040E092
:100CA0007DCF9093030180E814DB409113015091B4
:100CB000140160911501709116018A019B01E5E014
:100CC0003695279517950795EA95D1F7401B510B57
:100CD000620B730B8A019B01080F191F211D311D27
:100CE000D901C8018093130190931401A0931501B9
:100CF000B0931601F5E0B695A79597958795FA9567
:100D0000D1F7AA27BB2741E050E026E030E048CFEA
:100D100082E08093030181E8DCDA092E000CAA0B43
:100D2000BB0B50E040E0F1CF33DB40910701509125
:100D300008016091090170910A018A019B01A5E0F7
:100D40003695279517950795AA95D1F7401B510B16
:100D5000620B730B8A019B01080F191F211D311DA6
:100D6000D901C8018093070190930801A09309015C
:100D7000B0930A0115E0B695A795979587951A95B2
:100D8000D1F7AA27BB2741E050E027E030E008CFA9
:100D9000DC0199278827CC24CA94DC2CE12CF12C87
:100DA000220F331F220F331FE20FF31F40815181A7
:100DB000628173814C215D216E217F21842B952BD3
:100DC000A62BB72B80839183A283B38380910401E8
:100DD0008F5F809304012E960FB6F894DEBF0FBE8E
:100DE000CDBFDF91CF911F910F91FF90EF90DF90DA
:100DF000CF90BF90AF909F908F907F906F905F90BB
:100E00004F9008951F920F920FB60F9211242F93B7
:100E10003F938F939F93AF93BF93809131019091B4
:100E20003201A0913301B09134013091FE0026E0EF
:100E3000230F2D3768F129E8230F0396A11DB11D5B
:100E40002093FE008093310190933201A0933301EF
:100E5000B09334018091FF0090910001A0910101B5
:100E6000B09102010196A11DB11D8093FF009093E6
:100E70000001A0930101B0930201BF91AF919F9136
:100E80008F913F912F910F900FBE0F901F9018954B
:100E90000296A11DB11DD4CF1F920F920FB60F92D3
:100EA00011241F932F933F934F935F936F937F93DF
:100EB0008F939F93AF93BF93CF93DF93EF93FF9362
:100EC0009ADAEC011FB180E48EB989859A85AB85E9
:100ED000BC858B2F9927AA27BB278FB9E5D8892BEB
:100EE00041F52C8127FD25C0211137C01D8789853B
:100EF0009A85AB85BC85BA2FA92F982F882789871B
:100F00009A87AB87BC87243089F44D815E816F81DD
:100F10007885E881F9818D85099569877A878B873E
:100F20009C878D8580648E878FEF8C838C818F5F0B
:100F30008C83FF91EF91DF91CF91BF91AF919F9102
:100F40008F917F916F915F914F913F912F911F9161
:100F50000F900FBE0F901F9018958D819E81AF81CD
:100F6000B885BA2FA92F982F8827812B8D839E8330
:100F7000AF83B887BCCF1F920F920FB60F92112488
:100F80002F933F934F935F936F937F938F939F9391
:100F9000AF93BF93CF93DF93EF93FF932CDAEC01E2
:100FA00083D8892BE1F461E085E062D91C826E9AD6
:100FB00080E48EB98E858FB9FF91EF91DF91CF914B
:100FC000BF91AF919F918F917F916F915F914F9161
:100FD0003F912F910F900FBE0F901F9018956E9814
:100FE0001EB88FEF8C8360E085E042D9E5CF1F9279
:100FF0000F920FB60F9211240F900FBE0F901F90FB
:1010000018951F920F920FB60F9211248F939F93F2
:10101000AF93BF938091F9009091FA00A091FB00EB
:10102000B091FC000196A11DB11D8093F900909331
:10103000FA00A093FB00B093FC00BF91AF919F9189
:101040008F910F900FBE0F901F90189583E080BF77
:1010500083BF789499B7916099BF8FBD8EBD86B1DB
:101060008877866886B9379A88E19FE00FB6F8944A
:10107000A89581BD0FBE91BDA89561E083E0F8D829
:1010800061E081E0F5D8F894E9E3F1E081E791E0EF
:1010900011921192119211928E179F07C9F70FE1C9
:1010A00011E081E390E090932F0180932E016BEC8F
:1010B00070E0C80187DA109372010093710181E634
:1010C00092E7A3E6B3E78093690190936A01A09346
:1010D0006B01B0936C0180E098E6A3E6B4E78093DF
:1010E0006D0190936E01A0936F01B093700188E041
:1010F00092E0A4E6B0E780935D0190935E01A09337
:101100005F01B093600184E893E0A0E0B0E08093D9
:101110003D0190933E01A0933F01B0934001809325
:10112000410190934201A0934301B0934401809305
:10113000490190934A01A0934B01B0934C018093D5
:10114000450190934601A0934701B0934801109246
:10115000590110925A0110925B0110925C0189E2D0
:1011600090E0A0E0B0E08093390190933A01A09321
:101170003B01B0933C011092610110926201109208
:101180006301109264011092650110926601109241
:101190006701109268012FD9EC018DE690E09983E8
:1011A000888360E085E064D860E084E061D860E036
:1011B00086E05ED860E080E05BD888E18DB981E0B0
:1011C00080BD80E28BBF1B830A837894E1D8B0E0B6
:1011D000A0E025E0880F991FAA1FBB1F2A95D1F711
:1011E0008093070190930801A0930901B0930A012D
:1011F000EAD8B0E0A0E035E0880F991FAA1FBB1F16
:101200003A95D1F780931B0190931C01A0931D0187
:10121000B0931E0182E08093030182E85AD8B0E0C7
:10122000A0E045E0880F991FAA1FBB1F4A95D1F780
:1012300080930B0190930C01A0930D01B0930E01CC
:1012400083E847D8B0E0A0E055E0880F991FAA1FB7
:10125000BB1F5A95D1F780930F0190931001A09373
:101260001101B093120180E834D8B0E0A0E065E04D
:10127000880F991FAA1FBB1F6A95D1F7809313018E
:1012800090931401A0931501B093160181E821D821
:10129000B0E0A0E075E0880F991FAA1FBB1F7A95E8
:1012A000D1F78093170190931801A0931901B0937F
:1012B0001A0162ED70E0C80185D92FB7F8948091CA
:1012C000310190913201A0913301B09134012FBFCF
:1012D0008093350190933601A0933701B093380184
:1012E000C8E1DCE08091390185FD1AC096B116B8DD
:1012F0000FB6F894A895C1BD0FBED1BDA89581B514
:10130000806481BD85B7877E806185BF85B7806237
:1013100085BF889585B78F7D85BF96B964D9E2CFA3
:10132000A8952FB7F8948091310190913201A09146
:101330003301B09134012FBF4091350150913601F6
:10134000609137017091380184179507A607B70798
:10135000A8F049D98091350190913601A0913701CB
:10136000B091380186509F4FAF4FBF4F80933501EA
:1013700090933601A0933701B093380169E170E092
:1013800080E090E0DBD7AECFCF93DF93CFE1D1E029
:101390001B821A8288EE93E0A0E0B0E08C839D83EC
:1013A000AE83BF8384E690E099838883188A1F8682
:1013B000E0E3F1E060816E7F60836095617081E0C1
:1013C0001CD761E081E054D7EEE4F0E0E491EC87D3
:1013D000E2E4F0E0E491F0E0EE0FFF1FE85DFF4F84
:1013E000859194919E878D87A9E3B1E0D9961C924F
:1013F0001E92D897E4E0F1E01082B283A183DF91DE
:10140000CF910895002480FD060E660F11F0869599
:10141000D1F7802D0895991B79E004C0991F961784
:1014200008F0961B881F7A95C9F780950895A1E268
:101430001A2EAA1BBB1BFD010DC0AA1FBB1FEE1F4E
:10144000FF1FA217B307E407F50720F0A21BB30B99
:10145000E40BF50B661F771F881F991F1A9469F715
:1014600060957095809590959B01AC01BD01CF0171
:101470000895EE0FFF1F0590F491E02D0994F89464
:02148000FFCF9C
:10148200000000002002D5007D027D027D027C0268
:101492006F6E5F72656D0909615F6F66665F7409E1
:1014A20009625F6F66665F7409097673656E7361C0
:1014B20009097673656E736200090900506F7765DA
:1014C20072696E67206F66662070692E00506F77B2
:1014D2006572696E67206F6E2070692E005B200056
:1014E20030780030002C2000205D0068656C6C6F45
:1014F2002100736574757020636F6D706C6574651F
:021502000000E7
:00000001FF
