:100000002DC051C050C02CC671C64DC04CC04BC095
:100010004AC049C048C06BC546C045C044C043C083
:10002000B0C500003A00370000003B003800000077
:100030000102030400000000000000000039003647
:100040000002020201010101010101010201020499
:1000500080402010080402010800C60711241FBEBA
:10006000CFE5D2E0DEBFCDBF21E0A6EBB0E001C01E
:100070001D92A334B207E1F710E0A0E6B0E0E4E798
:10008000F0E102C005900D92A63BB107D9F710E050
:10009000CEE2D0E003C02197FE01E4D7CD32D107F4
:1000A000D1F749D6E5C718C6EDE4F0E08491E1E464
:1000B000F0E0E491EE2371F0F0E0EE0FFF1FE55C5D
:1000C000FF4FA591B491EC91E82381E090E021F4F9
:1000D00080E0089580E090E00895CF92DF92EF9263
:1000E000FF92E82F6A017B01482F4F70842F6EE04A
:1000F0008BD7292F30E0220F331F220F331F4930B7
:1001000051F0E295E695E695E370E23011F1E330C7
:1001100061F1E13071F0275F3E4FF901C080D1807D
:10012000E280F380C701B601FF90EF90DF90CF909F
:100130000895F901E75FFE4F80819181A281B3812B
:10014000C82AD92AEA2AFB2AC082D182E282F38213
:10015000E9CFF901E75FFE4F80819181A281B381F0
:10016000C822D922EA22FB22EFCF275F3E4FF901B6
:10017000EBCFCF92DF92EF92FF920F931F93CF932B
:10018000DF936C01EB017B01E40EF51E10E000E053
:10019000CE15DF0561F06991D601ED91FC910190DA
:1001A000F081E02DC6010995080F191FF1CFC80194
:1001B000DF91CF911F910F91FF90EF90DF90CF9043
:1001C000089590E0FC01E25DFF4F3491FC01E35B98
:1001D000FF4F2491FC01EF5BFF4FE491EE23B9F058
:1001E000332329F03130A1F480B78F7780BFF0E05E
:1001F000EE0FFF1FE85DFF4FA591B4918FB761111E
:1002000017C0F894EC9120952E232C938FBF08955E
:10021000323019F480B78F7DE9CF333021F48FB5B8
:100220008F778FBDE4CF343011F78FB58F7DF9CF45
:10023000F894EC912E2BE9CFCF93DF9390E0FC0163
:10024000E35BFF4F24918F5B9F4FFC0184918823D8
:10025000D1F090E0880F991FFC01EE5DFF4FA59152
:10026000B491FC01E85DFF4FC591D49161110EC0BE
:100270009FB7F8948C91E22FE0958E238C93288180
:10028000E223E8839FBFDF91CF9108958FB7F89461
:10029000EC91E22BEC938FBFF6CF9091EE0092950C
:1002A000990F990F907C8F77982B97B9369A36993A
:1002B000FECF84B195B108953FB7F8948091EA00DC
:1002C0009091EB00A091EC00B091ED0022B708B640
:1002D00000FE05C02F3F19F00196A11DB11D3FBFC3
:1002E000BA2FA92F982F8827BC01CD01620F711D4D
:1002F000811D911D43E0660F771F881F991F4A9546
:10030000D1F70895CF92DF92EF92FF92CF93DF93D0
:100310006B017C01D1DFEB01CFDF6C1B7D0B683EF5
:100320007340A0F0C114D104E104F10439F4DF9169
:10033000CF91FF90EF90DF90CF90089581E0C81AA1
:10034000D108E108F108C851DC4FE6CFC114D1044F
:10035000E104F10409F7EBCF8091C50081111EC0C3
:100360001092B9001092B8008FEF8093BA001092EB
:10037000BB001092BC001092BD001092BE00109203
:10038000BF001092C0001092C1001092C2001092E3
:10039000C3001092C40081E08093C50086EB90E01A
:1003A0000895EF92FF920F931F93CF93DF93DC0199
:1003B0001F96ED90FC905097E114F10479F481E0E0
:1003C00090E013969C938E93129790E080E0DF91DB
:1003D000CF911F910F91FF90EF9008951D96ED9191
:1003E000FC911E971C968C911C97982F90950FB797
:1003F00051962C915197122F117020FD6095F89411
:100400002081112319F1282B2083E7012197F1F78F
:1004100028E0462F50E0308160FF1AC0382B30832F
:10042000E7012197F1F7BA0175956795215089F792
:10043000112381F08081892380830FBF1F968D91C6
:100440009C910197F1F781E090E0C1CF2923DCCFA7
:100450003923E5CF9081892BEFCF089590E080E09C
:100460000895FB0101900020E9F73197AF01461B89
:10047000570BDC01ED91FC910280F381E02D099492
:10048000EF92FF920F931F93CF93DF93EC01E9DF7D
:100490008C01E881F9810190F081E02D6DE0CE01C1
:1004A00009957C01E881F9810190F081E02D6AE0F5
:1004B000CE0109950E0D1F1D800F911FDF91CF9169
:1004C0001F910F91FF90EF9008953F924F925F928E
:1004D0006F927F928F929F92AF92BF92CF92DF9254
:1004E000EF92FF920F931F93CF93DF93CDB7DEB7B9
:1004F000A1970FB6F894DEBF0FBECDBF8091D1009B
:1005000091E0980F9093D100837009F03EC2C090A3
:100510000901D0900A01E0900B01F0900C01D70185
:10052000C60115E0B695A795979587951A95D1F7C9
:10053000282F2170322ED6FEBFC114BE33E8D3223D
:10054000D701C60181729927AA27BB278197A105E8
:10055000B10509F08FC080910D0190910E01A0911D
:100560000F01B09110014091350150913601609119
:100570003701709138018B012227332766277727AF
:10058000011511052105310591F040902101509090
:1005900022016090230170902401230166247724B6
:1005A000BB24B394401651066206730608F0B12CC2
:1005B000411551056105710581F040902101509070
:1005C000220160902301709024016624772401E0C9
:1005D000441655066606770608F000E00097A10568
:1005E000B10529F0B11003C0002309F484C160E70C
:1005F00070E08FEE90E044DFE894C7F8D0F8BB20BD
:1006000009F470C1002309F46AC1F2E8CF2A6894A2
:10061000D0F83FE8C3228091190190911A01A0916E
:100620001B01B0911C018093110190931201A093C2
:100630001301B09314018091290190912A01A09196
:100640002B01B0912C01AC01BD0144275527AA27ED
:10065000BB270196A11DB11DAA27BB27842B952B73
:10066000A62BB72B8093290190932A01A0932B01ED
:10067000B0932C01C3FE6CC0C5FC6AC0809111010F
:1006800090911201A0911301B09114010097A1055E
:10069000B10509F05FC18091310190913201A091C3
:1006A0003301B09134014D01AA24BB24AA27BB27F2
:1006B0004091210150912201609123017091240108
:1006C0002A013B016624772481149104A104B1041A
:1006D00009F024C10097A105B10531F0481659066B
:1006E0006A067B0608F423C161E870E08FEE90E0B3
:1006F000C7DE8DEBC822E0E3CE2A809115019091F0
:100700001601A0911701B091180180930D019093EB
:100710000E01A0930F01B0931001809129019091D7
:100720002A01A0912B01B0912C01AC01BD016627DB
:100730007727882799271196842B952BA62BB72BE3
:100740008093290190932A01A0932B01B0932C014F
:10075000C0920901D0920A01E0920B01F0920C01C3
:1007600081E0B701A6014072552766277727C5FEAD
:1007700080E0381669F0452B462B472B09F401C160
:10078000D1FEFBC08FEFDF98DF9A8150E1F7DF9851
:100790008091410190914201009709F475C061E98F
:1007A00070E05FDEA9E08A2EA1E09A2E10E064E9F5
:1007B00070E0809141019091420153DEF40141903B
:1007C0005190619071904F01F8E1AF2EB12C809162
:1007D0004101909142010097D1F1730162010A2C0D
:1007E00004C0F694E794D794C7940A94D2F7FFE034
:1007F000FC1518F067E970E034DE4091410150913A
:100800004201DD24EE24FF2419A2BE016F5D7F4F5B
:10081000D701C601E4E0B695A79597958795EA9527
:10082000D1F7282F2295207F3C2D321B232F3A30E1
:100830000CF0A9C0205DFB012293BF016C017D017A
:10084000C114D104E104F10419F7CA010ADEF8E089
:10085000AF1AB10828EFA2162FEFB20609F0B7CFF2
:1008600080914101909142011D3019F069E970E0D9
:10087000F8DD1F5F1E3009F09ACF6CE970E08091BF
:10088000410190914201FCDDA1960FB6F894DEBFC4
:100890000FBECDBFDF91CF911F910F91FF90EF90D1
:1008A000DF90CF90BF90AF909F908F907F906F9090
:1008B0005F904F903F90089584B790E0982F8827DD
:1008C000990F990F88279C73092E000CAA0BBB0B5C
:1008D000E3ECDE22C82AD92AEA2AFB2A31CE22E812
:1008E000C22A97CE011103C06894C1F892CE6894D1
:1008F000C1F8D0F88ECE8E319105A105B10510F466
:100900006894C6F80197A109B10980930D019093ED
:100910000E01A0930F01B0931001ACCEAB0166277E
:100920007727481559056A057B0508F0D3CE8091D5
:10093000190190911A01A0911B01B0911C018093A3
:10094000110190931201A0931301B0931401E89444
:10095000C6F8FECE8E319105A105B10510F468945C
:10096000C6F80197A109B109809311019093120172
:10097000A0931301B0931401EBCE60E083E021DC7F
:1009800007CF61E0FBCF295C56CF8091D20066E0B3
:100990003BD3933009F45AC098F5913009F43FC025
:1009A000923009F447C082E287B93F9A3E9862E0EC
:1009B00070E080E090E0A6DC86B1877D86B9379A4A
:1009C000369A62E070E080E090E09CDC3699FECFE1
:1009D00084B125B1322F282F890130E020E081E059
:1009E00090E065E070E0E091D300F091D400892BB5
:1009F00009F059C0C12CD12CEE24EA94FE2C5BC026
:100A0000943079F1953079F682E08093EE0082E8B7
:100A100044DC8C0130E020E090E080E041C082E0E6
:100A20008093EE0083E839DC8C0130E020E090E038
:100A300080E0D7CF9093EE0080E82FDC8C0130E08F
:100A400020E081E090E066E070E0CDCF82E080932E
:100A5000EE0081E822DC8C0130E020E090E080E0D4
:100A6000F2CF81E287B962E070E080E090E04ADC9A
:100A7000369A3699FECF84B125B130E0322F222745
:100A8000032E000C440B550B282B60E070E381E132
:100A900090E0C6D289019A012227332781E090E0B5
:100AA00067E070E0A0CF980111270027CC24CA94FA
:100AB000DC2CE12CF12C660F771F660F771FE60FF9
:100AC000F71F80819181A281B3818C219D21AE216C
:100AD000BF21802B912BA22BB32B80839183A283E8
:100AE000B3838091D2008F5F8093D200CDCE1F92CE
:100AF0000F920FB60F9211242F933F938F939F93D2
:100B0000AF93BF938091010190910201A0910301E5
:100B1000B09104013091E90026E0230F2D3768F1F0
:100B200029E8230F0396A11DB11D2093E9008093AE
:100B3000010190930201A0930301B09304018091FD
:100B4000EA009091EB00A091EC00B091ED000196CD
:100B5000A11DB11D8093EA009093EB00A093EC00DF
:100B6000B093ED00BF91AF919F918F913F912F91E5
:100B70000F900FBE0F901F9018950296A11DB11DEA
:100B8000D4CF1F920F920FB60F9211241F932F9361
:100B90003F934F935F936F937F938F939F93AF9305
:100BA000BF93CF93DF93EF93FF93D6DBEC011FB19D
:100BB00080E48EB989859A85AB85BC858B2F992772
:100BC000AA27BB278FB970DA892B41F52C8127FD25
:100BD00025C0211137C01D8789859A85AB85BC85C5
:100BE000BA2FA92F982F882789879A87AB87BC8728
:100BF000243089F44D815E816F817885E881F981A7
:100C00008D85099569877A878B879C878D85806418
:100C10008E878FEF8C838C818F5F8C83FF91EF9118
:100C2000DF91CF91BF91AF919F918F917F916F9104
:100C30005F914F913F912F911F910F900FBE0F9099
:100C40001F9018958D819E81AF81B885BA2FA92FED
:100C5000982F8827812B8D839E83AF83B887BCCF45
:100C60001F920F920FB60F9211242F933F934F9321
:100C70005F936F937F938F939F93AF93BF93CF9324
:100C8000DF93EF93FF9368DBEC010EDA892BE1F43D
:100C900061E085E0D1DA1C826E9A80E48EB98E859F
:100CA0008FB9FF91EF91DF91CF91BF91AF919F915C
:100CB0008F917F916F915F914F913F912F910F9005
:100CC0000FBE0F901F9018956E981EB88FEF8C83F3
:100CD00060E085E0B1DAE5CF1F920F920FB60F9278
:100CE00011240F900FBE0F901F9018951F920F9216
:100CF0000FB60F9211248F939F93AF93BF93809160
:100D0000CD009091CE00A091CF00B091D00001967F
:100D1000A11DB11D8093CD009093CE00A093CF0074
:100D2000B093D000BF91AF919F918F910F900FBE64
:100D30000F901F90189583E080BF83BF789499B778
:100D4000916099BF8FBD8EBD86B18877866886B960
:100D5000379A88E19FE00FB6F894A89581BD0FBE41
:100D600091BDA89561E083E067DA61E081E064DA33
:100D7000F894E9E0F1E081E491E01192119211928E
:100D800011928E179F07C9F70FEE10E081E390E0F4
:100D90009093FF008093FE006FE970E0C80170DB64
:100DA000109342010093410181E692E7A3E6B3E785
:100DB0008093390190933A01A0933B01B0933C0199
:100DC00080E098E6A3E6B4E780933D0190933E016E
:100DD000A0933F01B093400187E092E0A4E6B0E722
:100DE00080932D0190932E01A0932F01B093300199
:100DF00084E893E0A0E0B0E080930D0190930E01B1
:100E0000A0930F01B09310018093110190931201F0
:100E1000A0931301B09314018093190190931A01C8
:100E2000A0931B01B0931C018093150190931601B0
:100E3000A0931701B09318011092290110922A0172
:100E400010922B0110922C0189E290E0A0E0B0E01A
:100E50008093090190930A01A0930B01B0930C01B8
:100E6000109231011092320110923301109234012C
:100E7000109235011092360110923701109238010C
:100E80006BDAEC018DE690E09983888360E085E081
:100E9000D3D960E084E0D0D960E086E0CDD960E0CD
:100EA00080E0CAD988E18DB981E080BD80E28BBF46
:100EB0001B830A83789466EA70E0C801E1DA2FB7F1
:100EC000F8948091010190910201A0910301B091E9
:100ED00004012FBF8093050190930601A0930701A1
:100EE000B0930801C8E1DCE08091090185FD1AC0DA
:100EF00096B116B80FB6F894A895C1BD0FBED1BD76
:100F0000A89581B5806481BD85B7877E806185BFE6
:100F100085B7806285BF889585B78F7D85BF96B977
:100F2000D4DAE2CFA8952FB7F8948091010190917F
:100F30000201A0910301B09104012FBF409105016E
:100F4000509106016091070170910801841795077F
:100F5000A607B707A8F0B9DA8091050190910601BC
:100F6000A0910701B091080186509F4FAF4FBF4F2E
:100F70008093050190930601A0930701B0930801A7
:100F800069E170E080E090E0BDD9AECFCF93DF9310
:100F9000CFEED0E01B821A8288EE93E0A0E0B0E0B2
:100FA0008C839D83AE83BF8384E690E0998388839E
:100FB000188A1F86E0E0F1E060816E7F60836095B3
:100FC000617081E0FED861E081E036D9EEE4F0E0C6
:100FD000E491EC87E2E4F0E0E491F0E0EE0FFF1F33
:100FE000E85DFF4F859194919E878D87A9E0B1E0E0
:100FF000D9961C921E92D897E2EDF0E01082B2834F
:10100000A183DF91CF910895991B79E004C0991FC6
:10101000961708F0961B881F7A95C9F78095089552
:10102000A1E21A2EAA1BBB1BFD010DC0AA1FBB1FEC
:10103000EE1FFF1FA217B307E407F50720F0A21B5E
:10104000B30BE40BF50B661F771F881F991F1A94CB
:1010500069F760957095809590959B01AC01BD01F5
:10106000CF010895EE0FFF1F0590F491E02D099434
:04107000F894FFCF22
:1010740000000000D101B9002E022E022E022D0222
:10108400506F776572696E67206F66662070692E8F
:1010940000506F776572696E67206F6E2070692EDD
:1010A400005B200030780030002C2000205D0068B8
:1010B400656C6C6F2100736574757020636F6D705F
:0610C4006C65746500007C
:00000001FF
